:020000040000FA
:1000000020940020FD02000005030000070300000B
:10001000090300000B0300000D03000000000000B6
:100020000000000000000000000000000F030000BE
:10003000110300000000000013030000150300007E
:10004000D965000017030000E9920000A97C0000B8
:10005000BD7C000017030000C5400000170300002E
:10006000DD8D00001703000017030000D56D0000B0
:100070001703000017030000170300001703000018
:1000800017030000E96D00001703000017030000CC
:10009000D17C0000170300001703000017030000C5
:1000A00017030000170300001703000017030000E8
:1000B000170300001703000000000000000000000C
:1000C00017030000170300001703000017030000C8
:1000D00017030000170300001703000017030000B8
:1000E00017030000170300001703000000000000C2
:1000F00000000000170300000000000017030000CC
:1001000000000000000000000000000000000000EF
:1001100000000000000000000000000000000000DF
:1001200000000000000000000000000000000000CF
:1001300000000000000000000000000000000000BF
:1001400000000000000000000000000000000000AF
:10015000000000000000000000000000000000009F
:10016000000000000000000000000000000000008F
:10017000000000000000000000000000000000007F
:10018000000000000000000000000000000000006F
:10019000000000000000000000000000000000005F
:1001A000000000000000000000000000000000004F
:1001B000000000000000000000000000000000003F
:1001C000000000000000000000000000000000002F
:1001D000000000000000000000000000000000001F
:1001E000000000000000000000000000000000000F
:1001F00000000000000000000000000000000000FF
:10020000DFF810D000F098FC004800478DE20100B4
:10021000AFF300802094002030B4044654E8000F6F
:100220000D4644E80053002BF8D1156030BC7047F0
:1002300030B4044654E8000F40EA010544E8005396
:10024000002BF7D1156030BC704730B4044654E839
:10025000000F00EA010544E80053002BF7D11560B8
:1002600030BC704730B4044654E8000F80EA010502
:1002700044E80053002BF7D1156030BC704730B410
:10028000044654E8000F00EB010544E80053002B3E
:10029000F7D1156030BC704730B4044654E8000F05
:1002A000A0EB010544E80053002BF7D1156030BCEA
:1002B000704770B404464FF0000054E8006F0D68BA
:1002C000AE4207BF44E80023012044E800630E600B
:1002D000002B1CBF0020F0E770BC704730B4044610
:1002E00054E8000F88422CBF451A054644E80053E5
:1002F000002BF5D1156030BC7047000006488047E0
:1003000006480047FEE7FEE7FEE7FEE7FEE7FEE7FA
:10031000FEE7FEE7FEE7FEE7AD8B0000010200000E
:100320002DE9F05F0546002092469B46884606462A
:10033000814640241BE0284641464746224600F0BD
:1003400060F853465A46C01A914110D311461846D8
:10035000224600F047F82D1A67EB01084F46224667
:100360000120002100F03EF817EB00094E41201E4D
:10037000A4F10104DFDC484631462A464346BDE885
:10038000F09F2DE9F0410024061B254671F100067F
:1003900005DA01240027D0EB070067EB0101161EE8
:1003A00073F1000605DA0027D2EB0702012567EB9F
:1003B0000303FFF7B5FF86460E4617469C46AC4240
:1003C00004D00025D0EB050E65EB010624B100201A
:1003D000D2EB000760EB030C704631463A466346A9
:1003E000BDE8F081202A04DB203A00FA02F1002067
:1003F00070479140C2F1200320FA03F31943904063
:100400007047202A04DB203A21FA02F000217047CD
:1004100021FA02F3D040C2F120029140084319466C
:100420007047000000487047E8A302000649074AE9
:100430000868504343F2390210440860400870478E
:100440000149086070470000900500206D4EC641CC
:1004500040EA01039B0703D009E008C9121F08C046
:10046000042AFAD203E011F8013B00F8013B521EC6
:10047000F9D27047D2B201E000F8012B491EFBD23D
:1004800070470022F6E710B513460A46044619469F
:10049000FFF7F0FF204610BD421E12F8013F002B6F
:1004A000FBD111F8013B02F8013B002BF9D1704759
:1004B00010B5044604E00B7800F8013B03B1491C79
:1004C000521EF8D2204610BDCAB2401E10F8011FBD
:1004D0008A4202D00029F9D100207047421C10F84E
:1004E000011B0029FBD1801A704730B5044600205B
:1004F000034600E05B1C934203D2E05CCD5C401BF2
:10050000F8D030BD034611F8012B00F8012B002A6A
:10051000F9D1184670472DE9FE4F804681EA030065
:10052000C00F0C46009021F0004123F00045B8EBCD
:100530000200A94105D24046214690461C460B4682
:10054000024623F00040104347D0270DC7F30A00AE
:10055000C3F30A510290401A019040286BDAC3F3AA
:10056000130040F4801B0098924620B10023D2EB88
:10057000030A63EB0B0B01985946C0F14002504649
:10058000FFF730FF06460D4650465946019A00F0E7
:1005900015FA10EB08006141002487EA115284EA41
:1005A000E7731A4340D0009A62B3019A012A4FEAD6
:1005B000075215DC001B61EB02014FF0004202EA1A
:1005C0000752CDE90042001C41F5801132462B460E
:1005D00000F04CFA03B0BDE8F08F40462146F9E741
:1005E000001B61EB0201001C41F5801300185B4108
:1005F0002018A2F5001747EB030140EAD570B619A1
:100600006D4111E06D084FEA360645EAC0754FEAC4
:100610000752001B61EB0201001C41F580114908E3
:100620004FEA30000019514132462B4603B0BDE875
:10063000F04F00F00CBA0098012240000023D0EBEC
:10064000020263EBE073009821464FEAE074B8EBD6
:10065000000061EB0401E9E783F000435BE781F010
:10066000004158E72DE9FE4F81EA030404F00044FD
:1006700021F0004100944FF0000B23F0004350EABA
:1006800001045ED052EA03045BD0C3F30A54C1F301
:100690000A552C44A4F2F3340194A0FB0254C1F394
:1006A000130141F48011C3F3130343F4801301FBDE
:1006B000024400FB034E840A970A44EA815447EA45
:1006C0008357A4FB076802958D0A05FB07854FEA4F
:1006D000932C04FB0C542705029D4FEA065847EA69
:1006E0001637B5EB08056EEB070C870E920E47EA3E
:1006F000811742EA8312A7FB0201B6EB0B0164EB00
:1007000000042B0D43EA0C335E1844EB1C50DA4610
:100710005146E7FB0201C5F313044FEA0B3343EAEA
:1007200014534FEA0432019C43EA0603A4F10C047B
:100730000294009CCDE900B400F098F903B0BDE844
:10074000F08F00200146F9E72DE9F04D81EA03041E
:1007500004F0004B21F0004514464FF0000A23F04E
:10076000004150EA050220D054EA01021DD0C5F331
:100770000A570246C5F31303C1F31300C1F30A5627
:1007800040F4801543F48013A7EB0608101BD646EF
:1007900008F2FD3873EB050002D308F1010801E00F
:1007A00092185B41B8F1000F03DA00200146BDE862
:1007B000F08D00204FF48011064684460EE0171B92
:1007C00073EB050705D3121B63EB050306434CEAE5
:1007D000010C49084FEA300092185B4150EA0107CA
:1007E000EDD152EA030012D082EA040083EA050147
:1007F000084305D0101BAB4106D20122002306E0BE
:1008000000224FF0004302E06FF0010253101AEB98
:1008100006004CEB085110EB0A0041EB0B01BDE860
:10082000F04D00F014B90EB5C10F80EAE070084435
:10083000CA07002140F233438DE80E000A460B46FA
:1008400000F014F903B000BD0EB540F2334102913F
:100850000021CDE900110A460B4600F007F903B06C
:1008600000BD70B5C1F30A5201F000450024C1F388
:10087000130140F2FF3341F480119A4201DA002063
:1008800070BD40F233439A42A2F2334203DC52423B
:10089000FFF7B7FD00E090402C43F1D0404270BD1F
:1008A000C1F30A5210B5C1F3130140F2FF3341F412
:1008B00080119A4201DA002010BD40F233439A427F
:1008C000A2F2334203DC5242FFF79BFD10BD904081
:1008D00010BD00F0004230F000400AD0C10D01F51B
:1008E0006071C0F3160042EA0151C208400711438B
:1008F000704700200146704730B5041E71F10004B6
:1009000004DB4FF00044404264EB0101141E73F11C
:10091000000405DB1C464FF00043524263EB040326
:100920008B4208BF824230BD30B5041E71F1000415
:1009300004DB4FF00044404264EB0101141E73F1EC
:10094000000405DB1C464FF00043524263EB0403F6
:10095000994208BF904230BD01F0004330B421F00D
:10096000004150EA010206D00A0DA2F56072C1F3FF
:100970001301002A02DC30BC00207047440F44EA17
:10098000C104C100E01830BC00EBC25000F028B830
:1009900030B50B46014600202022012409E021FA4F
:1009A00002F59D4205D303FA02F5491B04FA02F54C
:1009B0002844151EA2F10102F1DC30BD202A06DB1D
:1009C000CB17203A41FA02F043EAE07306E041FA1D
:1009D00002F3D040C2F1200291400843194670470B
:1009E0000029A8BF7047401C490008BF20F0010043
:1009F000704710B4B0FA80FC00FA0CF050EA010421
:100A000004BF10BC704749B1CCF1200421FA04F4B2
:100A100011FA0CF118BF012121430843A3EB0C018B
:100A2000CB1D4FEA00614FEA102042BF002010BCEE
:100A3000704700EBC35010440029A4BF10BC70479E
:100A4000401C490008BF20F0010010BC704710B5E1
:100A5000141E73F1000408DA401C41F100019218E1
:100A60005B411A4301D120F0010010BD2DE9F04D8A
:100A700092469B4611B1B1FA81F202E0B0FA80F2DF
:100A800020329046FFF7AEFC04460F4640EA0A00CB
:100A900041EA0B0153465A46084313D0114653EA24
:100AA000010019D0C8F140025046FFF7AAFC0546E4
:100AB0000E46504659464246FFF794FC084305D07F
:100AC000012004E020463946BDE8F08D00200543B2
:100AD00046EAE0762C4337430A986305E40AA0EB24
:100AE00008000022FD0A44EA47540A3002D50020DB
:100AF0000146E9E7010510196941DDE908450019DA
:100B00006941BDE8F04DA2E7C1F30A52C1F31301F8
:100B100040F2FF3341F480119A4202DA002001468C
:100B2000704740F233439A42A2F2334202DC52420F
:100B3000FFF767BCFFF756BC064C074D06E0E068C0
:100B400040F0010394E8070098471034AC42F6D314
:100B5000FFF75AFBF8A6020018A7020070B58C1820
:100B600010F8015B15F0070301D110F8013B2A11C1
:100B700006D110F8012B03E010F8016B01F8016BAE
:100B80005B1EF9D12B0705D40023521E0DD401F8AA
:100B9000013BFAE710F8013BCB1A921C03E013F873
:100BA000015B01F8015B521EF9D5A142D8D30020A8
:100BB00070BD0000F0B505462DED028B81B090F8B8
:100BC000C80314460F46DFED658A9FED658AF8B9C4
:100BD000B2EE040A85EDF90A05F58060C5EDFA8AE2
:100BE000B7EE000A80ED010AC0ED028A5FF0000056
:100BF00005EB8001401C81EDF38A81EDF68A81EDE1
:100C0000FB8A81EDFE8A0228F2DD012185F8C813F6
:100C100004F10C031E462246394605F572700FF0AA
:100C2000F1FD04F1180120460FF0C2FC38460FF028
:100C3000A6FE84ED090A30460FF0A1FE84ED0A0AF3
:100C400020460FF09CFE84ED0B0A94ED0A1A002159
:100C500005F54F70F0EE680A9FED420A07F098FE26
:100C600084ED0C0A05F1200094ED0A0A00221421FB
:100C7000064612F0B9FA94ED0A0AD6ED010A30EEF2
:100C8000601ADFED390AB6EE000A84ED0E1A11F093
:100C9000C9FE10B194ED0E0A01E0B0EE480A84EDF1
:100CA0000F0A95F8800200F00F0004280FD194ED90
:100CB0000E1ADFED2E0AB0EE000A11F0B3FE10B1ED
:100CC00094ED0E0A01E0B0EE480A84ED0F0A94EDAF
:100CD0000E0A10EE100AB0F17C5F01DAB0EE480A9D
:100CE00084ED0E0A95ED070AF1EE040AF3EE041AFC
:100CF00080EE801AF6EE000A002700973B463A463F
:100D000031EE201ABDEEC11A11EE100A81EE801AE2
:100D1000C1B231EE200ABDEEC00A10EE100A94ED09
:100D20000A0AC5B230460FF039FE84ED110A009769
:100D3000002394ED0A0A1A46294630460FF02EFE8B
:100D400084ED120A94ED0A0AD4ED0C0A30EE600A22
:100D500084ED0D0A01B0BDEC028BF0BD0000C8426D
:100D6000000000008FC2753DCDCC4C3E0AD7233D1C
:100D700070B50E462DED048B0446B0EE409A00256A
:100D8000032130460FF0F4FAD4ED130AF7EE008A8F
:100D900020EEA08A30EE680A11F0B7FA10EE100AC1
:100DA0003B49884206DD204607F086FE681EBDEC02
:100DB000048B70BD96EC030AF0EE491A204607F04A
:100DC000B7FE204623F0D8FDE8B3606BE0B300EE39
:100DD000100AD4ED002AF8EE400A22EEA21A88EE9C
:100DE000A00AD4ED030A41EE400A20EE801A84EDF9
:100DF000091A94ED012AD4ED040AB4EEC81A62EE81
:100E0000021A41EEC00A60EE801AC4ED0A1AD4ED4F
:100E1000020A94ED053A60EEA03A03EEC03A23EEE2
:100E2000003AF1EE10FA84ED0B3A26D2F4EEC81A2D
:100E3000F1EE10FA21D2B4EEC83AF1EE10FA1CD25B
:100E400062EE801A01E01BE01DE022EE001A60EE67
:100E5000800A21EEA10A0F49C4ED061A84ED071A93
:100E600001EE010AC4ED080A00EEA00A10EE100A15
:100E700008440949884200D20125204607F01CFE9B
:100E800084F8305002E0204607F016FE28468EE730
:100E90009A99993E84EBD1C05B8F820070B50D4664
:100EA0002DED028B0446B0EE408A032128460FF058
:100EB0005FFADFED410A30EE600A11F026FA10EE1B
:100EC000100A3E490022884203DD00BF84F820203A
:100ED00068E095ED001AD4ED000A95ED010AD5ED14
:100EE000022A70EE811AC4ED001AD4ED030A41EE15
:100EF000010AC4ED030A94ED011A31EE003A84EDC3
:100F0000013A94ED041A00EE001A84ED041A94EDEF
:100F1000020A70EE223A9FED2A0AC4ED023A94EDDD
:100F2000052A02EEA22AC8EE002A84ED052AA0694D
:100F3000401CA061E369BCEEE20A10EE101A1944ED
:100F4000E161B1F57A7F34D900EE100AB7EE004ABC
:100F500061EEA11AF8EE402A1A4984EE220A41EE07
:100F6000C00A63EE031A01EEC01A63EEA31A60EE24
:100F7000800A01EEC02A21EE001A10EE900A884283
:100F800022EE000AA2DA11EE100A88429EDA10EE72
:100F9000100A88429ADA94F82000FF2802D2401CF6
:100FA00084F820002046BDEC028BBDE8704007F0BD
:100FB00097BDBDEC028B70BD0AE81C41DD0C7B3F88
:100FC00000007A4413AC203B90F89523032A05D205
:100FD000086A48610020887008627047B0F8E03302
:100FE0004A691A444A61B0F8E0038A69104488618A
:100FF00070470000F0B50446007A214D91B01646C6
:101000000F4680070BD42046296904F0A8FA286906
:1010100014F0BDFA04F1B40128690EF001FC282196
:1010200002A8FFF72EFA083702AB07CF83E80700C4
:1010300007CF05AB83E8070017ED070A0CA98DED74
:101040000B0AE86814F069FF01210520CDE90001D1
:101050000A46002308A90CA805F00FFC04F1BC0205
:1010600002A9286911F0D6F9002807DD316841F09E
:101070000201316094F8BC1086F8841011B0F0BD04
:10108000F8530020F0B589B00C46064615462421D9
:101090006846FFF7F6F906F1100080210746FFF7D2
:1010A000F0F9307B08348DF8000007CC01AB83E801
:1010B000070007CC04AB83E8070014ED070A0E48CD
:1010C0008DED070A3A46C168089140696946203C9F
:1010D00011F076FB061E0BDD2078C00708D08022B9
:1010E0003946281DFFF7B4F9286840F00100286050
:1010F00009B03046F0BD0000F85300202DE9F04F54
:1011000004462DED028B0026007A464D83B017462B
:101110008B4680060BD42046A96904F017FAA8690B
:1011200014F02EFA04F22111A8690EF075FB9BED64
:10113000010ADFED3D0A3B4894F8251120EE208A94
:10114000856904F59279D2290CD90022012337A1AF
:1011500010460BF069FBB0EE480A4946284605F0F8
:10116000F1FF58E0374AD4F828114FF0000804F591
:10117000907A914212DDCDF80080CDF8048053467C
:101180006A4649462846CDF8088011F0DDF9064642
:10119000012084F82401A868401CA86094F8240168
:1011A00090B1B0EE480A4946284605F0CBFF84F8D6
:1011B00026819BF80000C0061BD51A48B0EE480AED
:1011C0004946C06905F088FF94F82601032810D32A
:1011D00005F10D0084F826810121064608F08CF8FF
:1011E000534605F110020121304602F00EF80126A7
:1011F00001E0002E0FDD94F82011D4F81C01884284
:1012000009D03868C7F894A040F02000386094F8FE
:101210002001C4F81C0103B03046BDEC028BBDE8D0
:10122000F08F0000F8530020BD378635522F41253E
:10123000643A2041525F4944585F4558434545440C
:10124000000000009EEF3F402DE9F04704462DEDE1
:10125000028B9AB0007A444E17460D464FF00008B4
:10126000C00606D42046F16904F0A0F9F06902F046
:1012700001FEB246F669642101A8FFF702F9286869
:10128000019095ED010A03AB8DED020A95F8290056
:101290008DF81C00D5F82500069005F10800DFED5B
:1012A000330A07C883E8070020EE208A94ED4A0A33
:1012B00004F5927986ED5F0A94F82511D22911D9A7
:1012C000032201232AA110460BF0AEFAB0EE480A21
:1012D0004946304605F000FF40461AB0BDEC028B8F
:1012E000BDE8F08704F1F408CDF8008001AB494671
:1012F0003046DAF8202012F0B1FA824694F8240140
:10130000B8B12149D4F82801884228784FEA806092
:1013100002DD002807DA0CE0002804DA94F8260140
:10132000401C84F82601B0EE480A4946304605F0D4
:10133000D3FEBAF1000F15DDB6F87A01401C80B279
:10134000A6F87A01B0F57A7F02D30020A6F87A01D8
:10135000386840F01000386096ED360A87ED220AB2
:10136000C7F898805046B8E7F8530020BD37863557
:10137000522F4125643A2041525F4944585F4558F5
:1013800043454544000000009EEF3F40F0B5044651
:10139000007A1B4E85B015460F46000706D420463E
:1013A000716804F0F7F8706814F012F914216846B7
:1013B000FFF767F807F1080001AB07C883E80700EB
:1013C00097ED010A04F1C4028DED040A7068164617
:1013D000694611F02BFF00280FDDD4F8C820D4F89F
:1013E000C010914209D02968C5F8906041F0080109
:1013F0002960D4F8C810C4F8C01005B0F0BD0000D2
:10140000F8530020F0B50446007A1E4D8BB0164606
:101410000F46400716D418221B4904A8FFF718F8F6
:1014200004AA042120460EF00BFA2046A96804F015
:10143000F3F8A86814F03EF904F1D4011822A86862
:1014400022F0ECF80020009001900290039007F148
:10145000080007C88DE8070097ED010A04F1EC02C7
:101460008DED030A14466946A86813F087FB00282F
:1014700005DD3168C6F88C4041F0040131600BB0E5
:10148000F0BD0000F8530020A0A2020030B589B0E2
:101490000D46044624216846FEF7F3FF01231A4651
:1014A00069462046089506F0B3F904F59E7020F0D1
:1014B0000FFC204604F0BAF8D4F8DC04401CC4F851
:1014C000DC0409B030BD10B50246012000214FF008
:1014D0007C5452F82130A34200DA0020491C032931
:1014E000F7DB10BD30B59FB08A8E0DF16C0C4D8FBF
:1014F0000C8FCB8E8CE83C008A8D0DF15C0C4D8EF0
:101500000C8ECB8D8CE83C008A8C0DF14C0C4D8DF3
:101510000C8DCB8C8CE83C008A8B0DF13C0C4D8CF7
:101520000C8CCB8B8CE83C008A8A0DF12C0C4D8BFB
:101530000C8BCB8A8CE83C008A890DF11C0C4D8AFF
:101540000C8ACB898CE83C008A880DF10C0C4D8903
:101550000C89CB888CE83C004A880988C378CDE99F
:101560000031029283780522024910460BF05CF9A3
:101570001FB030BDC4A50200F0B50D490D4E0022CC
:101580000C68002102EB800504EB820301EB850C63
:101590005F5C16F80CC087EA0C075F54491CC9B29F
:1015A0000429F3D3521CD2B2042AEAD3F0BD0000BE
:1015B000280400207852002000228B5C8354521CA7
:1015C000D2B2102AF9D3704701B5C0B04098006874
:1015D000012876D0142802D0642873D173E1409892
:1015E00008303E903E9890ED000AF7EE000AB4EE07
:1015F000600AF1EE10FA66D13E9890ED010AF7EE1E
:10160000000AB4EE600AF1EE10FA4BD13E98406A3F
:101610003190FFF75EF9CDE93C013E98006A3190C8
:10162000FFF757F9CDE93A013E98C0693190FFF7CD
:1016300050F9CDE938013E9880693190FFF749F9BA
:10164000CDE936013E9840693190FFF742F9CDE986
:1016500034013E9800693190FFF73BF9CDE9320142
:10166000DDE93C01CDE90801DDE93A01CDE90601FA
:10167000DDE93801CDE90401DDE93601CDE90201FA
:10168000DDE93401CDE900019DED320B53EC102B67
:10169000D1A000F0CFFD642000F09EFE642000F099
:1016A000A1FECDE03E9880683B90FFF712F9CDE9AE
:1016B0003C019DED3C0B53EC102BD7A000F0BAFD84
:1016C000BEE0DBE024E13E9890ED000AF0EE000A77
:1016D000B4EE600AF1EE10FAE3D13E98C06B1D90B3
:1016E000FFF7F7F8CDE93C013E98806B1D90FFF7BE
:1016F000F0F8CDE93A013E98406B1D90FFF7E9F80C
:10170000CDE938013E98006B1D90FFF7E2F8CDE976
:1017100036013E98C06A1D90FFF7DBF8CDE9340131
:101720003E98806A1D90FFF7D4F8CDE932013E98CB
:10173000406A1D90FFF7CDF8CDE930013E98006A70
:101740001D90FFF7C6F8CDE92E013E98C0691D90A7
:10175000FFF7BFF8CDE92C013E9880691D90FFF797
:10176000B8F8CDE92A013E9840691D90FFF7B1F81D
:10177000CDE928013E9800691D90FFF7AAF8CDE950
:1017800026013E98C0681D90FFF7A3F8CDE924011B
:101790003E9880681D90FFF79CF8CDE922013E98A5
:1017A00040681D90FFF795F8CDE920013E9800684C
:1017B0001D90FFF78EF8CDE91E01DDE93C01CDE972
:1017C0001C01DDE93A01CDE91A01DDE93801CDE975
:1017D0001801DDE93601CDE91601DDE93401CDE975
:1017E0001401DDE93201CDE91201DDE93001CDE975
:1017F0001001DDE92E01CDE90E01DDE92C01CDE975
:101800000C01DDE92A01CDE90A01DDE92801CDE974
:101810000801DDE92601CDE90601DDE92401CDE974
:101820000401DDE92201CDE90201DDE92001CDE974
:1018300000019DED1E0B53EC102B7DA000F0FAFC77
:101840008AA000F0F7FC00BF19203D9000BF3D9832
:10185000202802D24FF0A04004E03D9800F01F0085
:101860003D9089483C9000BF3C98D0F810053D99C8
:10187000C84000F001000028E6D1A9E0409890EDB2
:10188000040ADFED820A20EE200ABDEEC00A8DEDCB
:101890003E0A90ED030ADFED7D0A20EE200ABDEE40
:1018A000C00A8DED3D0A90ED020ADFED780A20EEC8
:1018B000200ABDEEC00A8DED3C0A75A03CA90EC9F8
:1018C00000F0B8FC84E0409800693790FFF701F819
:1018D000CDE93C014098C0683790FEF7FAFFCDE9AA
:1018E0003A01409880683790FEF7F3FFCDE9380160
:1018F000DDE93C01CDE90201DDE93A01CDE9000174
:101900009DED380B53EC102B67A000F093FC5FE0CB
:101910004098406A2D90FEF7DCFFCDE93C014098ED
:10192000006A2D90FEF7D5FFCDE93A014098C069D5
:101930002D90FEF7CEFFCDE93801409880692D90BB
:10194000FEF7C7FFCDE93601409840692D90FEF7BC
:10195000C0FFCDE93401409800692D90FEF7B9FF32
:10196000CDE932014098C0682D90FEF7B2FFCDE975
:101970003001409880682D90FEF7ABFFCDE92E0135
:10198000DDE93C01CDE90C01DDE93A01CDE90A01CF
:10199000DDE93801CDE90801DDE93601CDE90601CF
:1019A000DDE93401CDE90401DDE93201CDE90201CF
:1019B000DDE93001CDE90001409800682D909DEDF2
:1019C0002E0B53EC102B014643A000F033FC00BF5C
:1019D00000BF41B000BD0000535056206F6B3A204D
:1019E0006163635F626961733D252E34662C202537
:1019F0002E34662C20252E3466206779725F62694A
:101A000061733D252E34662C20252E34662C20252E
:101A10002E34660A00000000535056206661696C3F
:101A2000653A20726561736F6E3D252E31660A003E
:101A3000535056206462673A20252E33662C2025A9
:101A40002E33662C20252E33662C20252E33662C33
:101A500020252E33662C20252E33662C20252E3370
:101A6000662C20252E33660A000000005072657334
:101A700073206B6579203420746F20636F6E7469F6
:101A80006E75650D0A0000000003005000401C4602
:101A90005441473D444C4F47322047362825642C5B
:101AA00025642C2564290A006F7269656E7461745F
:101AB000696F6E3A207961773D252E33662C207050
:101AC000697463683D252E33662C20726F773D253F
:101AD0002E33660A000000004944585B25645D3AD5
:101AE00020252E33662C20252E33662C20252E33E0
:101AF000662C20252E33662C20252E33662C20259F
:101B00002E33662C20252E33662C20252E33660A94
:101B1000000000002DE9F041074600F01BF80646E2
:101B20000024094D09E0A86B50F8340002691AB18D
:101B30000549384678319047641CE86B8442F2D3FB
:101B40003046BDE8F081000060010020704770471A
:101B5000002070472DE9F043ADF5057D044623F0E4
:101B600051F8054688460220D4F8009022F0ECFF98
:101B7000AD4E00283BD00127484623F02BF8002823
:101B800035D1B94682908390271D83AA82A901206E
:101B900022F0EEFF839808B9102083907FB12020B7
:101BA00022F0D2FF08B1062002E0829808B9032093
:101BB0008290024642AB3846839914F0F5F842AB66
:101BC0009AA102A8829A07F095FD9B4A0023284615
:101BD0004146FEF7D6FB02A9CDE900104B4622682C
:101BE00096A0716A23F018F8706A401C7062042095
:101BF00022F0A0FF002846D18B4F2168803704F1E6
:101C000014094FF07E58A7F1080509293BD2DFE8F7
:101C100001F0053B6C929EA3BCF9F700201D716C8E
:101C200009F026FE4846716C09F022FE201D3B1D7E
:101C300007C883E807002169414518D194ED010ADE
:101C4000D4ED050A30EE200A85ED060A94ED020A6D
:101C5000D4ED060A30EE200A85ED070A94ED030A5A
:101C6000D4ED070A30EE200A85ED080A04E0211DB4
:101C700010370EC987E80E00216A414503D194ED63
:101C8000090A85ED090ACAE0201D716C09F0F0FD12
:101C90004846716C09F0ECFD201D07F1200307C8D0
:101CA00083E807002069404518D194ED010AD4ED7E
:101CB000050A30EE200A85ED0D0A94ED020AD4EDF6
:101CC000060A30EE200A85ED0E0A94ED030AD4EDE3
:101CD000070A30EE200A85ED0F0AA0E0241D2C37FC
:101CE00094E8070087E8070099E0201DB16C09F02F
:101CF000BFFD4846B16C09F0BBFD201D07F138035C
:101D000007C883E8070004F11400103307C883E80C
:101D1000070094ED040AB5EEC00AF1EE10FA07DAF6
:101D20001434383794E8070087E807009FED4C0A21
:101D300085ED130A73E094ED010A85ED170AA0689A
:101D400040456CD194ED030A85ED180A67E094EDE7
:101D5000010A85ED190A62E094ED010ABDEEC00AA0
:101D600085ED1A0A94ED020ABDEEC00A85ED1B0A44
:101D700094ED030ABDEEC00A85ED1C0A94ED040A39
:101D8000BDEEC00A85ED1D0A49E094ED120B85ED0C
:101D90001E0B94ED140B85ED200B94ED160B78358E
:101DA00051EC100BFEF7D8FD286194ED180B51ECA7
:101DB000100BFEF7D1FD686194ED1A0B51EC100B7E
:101DC000FEF7CAFDA86194ED1C0B51EC100BFEF759
:101DD000C3FDE86194ED1E0B51EC100BFEF7BCFD4A
:101DE000286294ED200B51EC100BFEF7B5FD6862F4
:101DF00094ED220B51EC100BFEF7AEFDA8620EE045
:101E000007E0FFE794ED010ABDEEC00A85ED2A0A5E
:101E100005E094ED010ABDEEC00A85ED2B0A0DF533
:101E2000057D0020BDE8F083600100206466442A3F
:101E3000256428257329000040420F005441473D86
:101E400043534920534E2825642953542825642997
:101E500049542825642925735453282564290000F2
:101E6000000000002DE9F84F4FF00008C14647463A
:101E700022F0C8FE494CC4E91401202001F0FCFE08
:101E8000DFF81CA168B1D4E9140152460023FEF723
:101E900047FA024643A0616922F0BEFE6069401C19
:101EA0006061082001F0F2FE10B10020BDE8F88F5B
:101EB000002656E03948483050F82650A8680228D5
:101EC00001D0032830D1D5E90612D4E91430591ACB
:101ED000904129D3296E2846884728BBD4E914238A
:101EE000284614F02AFA0022D4E91431AF6880465B
:101EF0001046022F02D0032F1AD010E02F6C012FB2
:101F000002D0022F02D00AE02A6A02E02A6A686C34
:101F100042434FF47A704243D017D2184841C5E982
:101F20000620C5E904310127A868012802D010E085
:101F3000EA68EEE7296E2846884750B9D4E91423A9
:101F4000284614F0FAF98046D4E914010127C5E9BE
:101F50000401B8F1000F03D0206A854200D1C146C8
:101F6000761C20688642A5DB9FB1402001F084FEEC
:101F700078B1D4E9140152460023FEF7D1F900905C
:101F800043464A460DA0A16922F046FEA069401CC6
:101F9000A061B9F1000089D1404687E7080100201F
:101FA00040420F005441473D44474420534E2825AA
:101FB0006429545328256429000000005441473DFA
:101FC0004447445F4F4B20534E2825642944545FB7
:101FD000412825642944545F4E28256429545328F8
:101FE000256429001CB50748009007480190684601
:101FF00000F0E8F905A001F091FD07A001F08EFDC9
:1020000000201CBD5187000041800000405F4072ED
:1020100062733D3130323400405F407268733D324C
:102020000000000010B5102001F026FE70B122F073
:10203000E9FD104A0023FEF773F90F4C02460FA08A
:10204000E16922F0E9FDE069401CE061012001F056
:102050001DFE60B9FFF706FF002808DD1FF0B6FB84
:1020600028B1022001F012FE08B900F0EEFB0020BA
:1020700010BD000040420F00080100205441473DC0
:10208000444D505220534E2825642954532825642A
:102090002900000070B50446134800F029F82046D6
:1020A00000F03CF81FF01CFC0F48143017F00AFF3A
:1020B0001FF030FC0C48183013F046FE0CF0F4FD15
:1020C000094D0024403D07E0A86B50F8340001683A
:1020D00009B101208847641CE86B8442F4D3BDE851
:1020E000704002480AF082BBA0010020055E00009B
:1020F00008B507490160684613F0E6FF0098416A99
:10210000044888470449009820308860012008BDB1
:10211000155E00009D72815BA00300200B4910B585
:1021200008600BA013F03AF900201FF099F90AA0FB
:1021300013F034F90A480AF0DFFD0AA013F02EF973
:10214000BDE8104009480AF03BBC000060010020D7
:10215000405F406861380000405F406861360000C1
:10216000A1240200405F4068613700007919020035
:1021700010B5044640211048FEF783F90E486CB1B3
:102180002168016261680161A1684161E1680160E3
:1021900021694160E1698163216AC163016909B90B
:1021A0000649016106498160BDE8104010224FF4E4
:1021B0001651044822F088BD80500020596C01005F
:1021C000F1BB0100882700202DE9F04772B60BF023
:1021D00085F80025044610480CC8204629460CF016
:1021E000B2FE06460F46304639461FF0F1F90B4B5A
:1021F0000CCB10EB020841EB030962B64FF47A7383
:1022000000204146A1FB03CA09FB03A208FB0021F1
:102210006046BDE8F0870000100000201800002094
:1022200010B50446214602A007F03AFA002010BD7E
:10223000257300000FB438B5002405A80090FF21D5
:102240000748009B049A07F069FA044600200090B2
:102250000348FFF7E5FF204638BC5DF814FB00009B
:10226000281600202DE9FF4F81B0054617461E466F
:1022700000240020224908700120FBB2E9B202AA22
:10228000009020481CF068FF804607E0601C84B284
:1022900000BF42F21070844200DD03E0184800786D
:1022A0000028F3D000BFB8F1000F03D0404605B0BE
:1022B000BDE8F08F002012490870DFF8489005F063
:1022C000FF0A0E9800F0FF0B002000905B4632469C
:1022D000514609F104001EF093FB009000988046DF
:1022E00007E0601C84B200BF42F21070844200DD3F
:1022F00003E0034800780028F3D000BF4046D6E74B
:1023000020000020000000202DE9FF4786B0054690
:1023100014461E46DDE9127A4FF00008142101A888
:10232000FEF7AFF8224607A901A8FEF791F801A928
:1023300008193A463146FEF78BF800200F4908701D
:1023400000903819C3B2E9B201AA0D481CF004FF8D
:10235000814609E008F101001FFA80F800BF42F24F
:102360001070804500DD03E0044800780028F1D0BB
:1023700000BF48460AB0BDE8F087000020000020FA
:10238000000000202DE9F04707464FF47A70B7FBB4
:10239000F0F404B90124254605B90FE000BF4FF45D
:1023A0007A7606B906E0DFF818904FEA86184046BC
:1023B000C84700BF681E051EF1D100BFBDE8F08709
:1023C000D16F020020B10349D0E90020C1E91C20EF
:1023D0000120704760010020014A002100F008B888
:1023E000B1240200014A012100F002B8B124020028
:1023F0002DE9FE4F91460E4682464FF0000822F02E
:1024000001FC04460F46012022F09EFB4E4D78B1A0
:102410004E4A002320463946FDF7B3FF009033466D
:1024200052464BA0E96822F0F7FBE868401CE860E0
:1024300022F0DAFB00286CD002AA0021504614F0EA
:102440004DF90746401C4FF0010414D0384614F0F3
:10245000D1F9B0425DD0A86A04FA07F416B104437A
:10246000AC6201E0A043A8620298D8B33146384676
:1024700020F0EEF94DE001AA0021504614F0F4F8E6
:102480000746401C12D0384614F0A8F9B04240D09C
:10249000E86A04FA07F416B10443EC6201E0A043D1
:1024A000E8623146019820F01BFA32E001AA0021CF
:1024B000504614F04DF90546401C28D0284614F02B
:1024C000A5F9B04225D02B48402D00DB083004FA96
:1024D00005F446B1D0E90021224341EAE471C0E9A4
:1024E000002108E012E0D0E90012E343194002EABB
:1024F000E372C0E900123146019820F0F1F9B9F118
:10250000000F06D0314650464A46904701E04FF052
:10251000FF380021174D184C0846103500EB4002DB
:1025200004EB82035A6855F82220002A01DD9A68DC
:102530001143401C0A28F1D303487830C0F8C0107A
:102540004046BDE8FE8F00006001002040420F00C1
:102550005441473D534520534E282564295349444F
:10256000282564294F4E2825642954532825642999
:1025700000000000084D0020C47102000022AFF3EB
:10258000008000F001B800002DE9F74F8CB00C4638
:10259000834622F037FB80468946012022F0D4FA98
:1025A000DFF870A278B10E98CDF80080CDE90190E7
:1025B00023465A4655460020DAF804101EF038FD2E
:1025C0006868401C68600026214658460AF046FDAF
:1025D0000546012800D1012622F006FB002877D00D
:1025E000002558462F46BBF16E0F74D00DDC0A282B
:1025F00043D004DC98B1BBF1020F2DD14AE064282E
:1026000075D0BBF1650FF8D12DE06F2867D0702829
:1026100068D0782845D0BBF1C90FEED181E02068A1
:10262000012855D17C49206908607C49606A0860AE
:102630007B484FF000010078000701D5794800E0A1
:1026400000200AF021F9E069411C06D000231A4657
:102650004FEA03010AF01EF99AE04FF0FF300346FB
:102660001A461146F6E720680128DAD16168CAF8EF
:102670004410A168CAF848108AE020680128D0D127
:102680006949606808606949A06808606849E0684D
:1026900008607DE0206801281AD120460AF068FC15
:1026A00076E02068012813D1684622F0F3FA0098FA
:1026B00060600398A0600998E0600298206101982A
:1026C00060610698A0610798E0610A9820625EE068
:1026D0008EE000E00BE020460AF01EFA58E02146AA
:1026E000012001E0214602200AF02AFA4FE020688A
:1026F00001287DD16068CAF85400464855465430D8
:1027000017F0E0FB20460AF037F920692865012818
:1027100000D02F653F48583013F016FB0CF0C4FA78
:1027200035E02068012870D13A4D60685C35C0B151
:10273000012802D0022814D029E0286840B3696833
:1027400031B33C4A00255040A0603B484140E16025
:10275000FDF76CFE04EB85016D1C08610C2DF7DBA9
:1027600015E0A068A0B1E06890B1002101AB02AA19
:102770000846009713F07CFC0198012808D12F49E6
:10278000A068484028602E49E068484068600126FB
:10279000584621461EF0AAFE0128054600D1012612
:1027A00000270DE0DAF8380050F83700426832B1FF
:1027B0002146584690470546012800D101267F1C36
:1027C000DAF83C108F42EDD31248703002682AB11B
:1027D0002146584690470546012800D046B10120C1
:1027E00022F0B2F920B123460E985A46544600E032
:1027F0000BE0CDF80080CDE901900120DAF8081057
:102800001EF016FCA068401CA0600FB02846BDE872
:10281000F08F0000600100204403002054030020DA
:10282000F8020020D9B90000480300204C03002022
:1028300050030020EA1C51BAAC2B6154DCAB16DF0C
:102840001F65EF870122FFF79CBE00207047000044
:1028500070B50446074900F011F8002C08DD064B5E
:102860004FF47A75D3E91A12C4FB0512C3E91A12A0
:1028700070BD0000E1170200600100202DE9F04F5B
:1028800097B08846074622F0BDF905460E464FF040
:10289000000A082022F058F9DFF8E8B0DFF8E890E5
:1028A00080B15A46002328463146FDF739FD0346DC
:1028B0003A464C4635A0D9F8141022F0ADF96069BB
:1028C000401C6061304C5A467834002384E8E000B4
:1028D00028463146C4F8D070FDF722FD13F0B6FB50
:1028E0002546C4E9320128461EF0CAFD28460AF0F2
:1028F0003FFA2E480078C00702D0204609F0F8FFC2
:1029000013F018FED9F81830012B05D180F06303BD
:102910000B4332D0084330D00120C9F81800D4F856
:10292000C440E4B116A918F01DFFC0B15821684693
:10293000FDF7A7FD16980090B7EE000A8DED020A8C
:10294000E00701D08DED030AA00701D58DED040A43
:10295000600701D58DED050A684608F0D1FF1FF02C
:10296000C3FDB8F1000F04D00748414678308847CE
:10297000824617B05046BDE8F08F002022F03AF9A9
:10298000F7E7000040420F00600100205441473D3E
:102990004D50523220534E2825642944495428254D
:1029A000642954532825642900000000F8020020FF
:1029B00070B50D462DED048B0446032190ED239A4E
:1029C0009FED2F8A10460DF0D3FCDFED2E0A30EE7E
:1029D000600A0FF09AFC94F87000F0EE408AC0078D
:1029E00035D018EE900A94ED260AF7EE009AB0F171
:1029F0007E5F11DA032205F1F00105F1E4000DF02C
:102A0000F1FD39EEC08AB4EEC98AF1EE10FA01DDAB
:102A1000B0EE498A94ED270AC9EE890A94ED241A8A
:102A200060EE800AB0EE080A28EE800A20EE090A5D
:102A300008EE410A20EE800A07F09EFA94F804039B
:102A400001280CD9D4ED250A20EE800A07E0B0EE6B
:102A5000680A07F091FAD4ED2A0A20EE200A0A4902
:102A600010EE100A884201DD9FED080AD4ED1E0A1F
:102A700020EE800A85ED3F0ABDEC048B70BD00009E
:102A8000000000000AE81C41C2BDF07CC2BDF07C21
:102A90002DE9F0418CB04FF00308012601F1F0045C
:102AA0000F4601F1E402CDE90086054600F1300150
:102AB000434638460DF06EFCCDE90086032305AA97
:102AC00005F1240138460DF065FC05AD204602AE47
:102AD00008AA29460DF041FD324608A928460DF006
:102AE0003CFD032102A80DF043FC10EE100A094939
:102AF000884203DA01200CB0BDE8F081032102A86E
:102B00000DF0C4FC02AB93E8070084E80700002046
:102B1000F1E700000AD7233C70B504462DED028B87
:102B20000D4690F8046390ED218A90F87000C0077C
:102B30001CD0032205F1F00105F1E4000DF052FD77
:102B4000F7EE000A30EEC00AB4EEC80AF1EE10FA51
:102B500001DDB0EE480A80EE881AD4ED220A61EE5B
:102B6000200A20EEC00A07F007FA01E094ED2B0AD4
:102B7000002E08DD16FB06F0704300EE900AF8EE1A
:102B8000E00A20EE800A084910EE100A884201DDB2
:102B90009FED060AD4ED200A20EE800A85ED3F0A5B
:102BA000BDEC028B70BD0000C2BDF07CC2BDF07CEC
:102BB0002DE9F04191ED010ADFED220A04460F46AE
:102BC00020EE200AD0ED570A083170EE800AC0EDE1
:102BD000570AD0ED170A30EE800A80ED170AB0F8D8
:102BE0008000401CA4F88000204600F07DFAE06DD3
:102BF000B0F17E5F23DB04F15C05002605EB860265
:102C000002F11003A98C0020121D01F05FFC761C5C
:102C1000F6B2032EF2D305F12003A98C1A1F00206F
:102C200001F054FC2946384606F070FB84F8C300D6
:102C30009FED050A002084ED170AA4F88000BDE886
:102C4000F0810000BD37863500000000B0EE402A5C
:102C50009FED140AB4EEC12AF7EE002AF1EE10FA45
:102C600002D2B0EE620A7047B4EEE12AF1EE10FA39
:102C7000F9DC71EEC11A82EEA11A72EE601AF6EE5C
:102C8000000A41EEC10A10EE900AB0F17E5F01DD4C
:102C9000F7EE000AF5EEC00AF1EE10FAE3D3B0EE5B
:102CA000600A70470000000070B5054600F10C0492
:102CB000022902D0042903D004E005F1180401E040
:102CC00005F1240494ED000A0FF01FFB10EE100A2A
:102CD0000E4EB0420FDA94ED010A0FF016FB10EE23
:102CE000100AB04207DA94ED020A0FF00EFB10EE64
:102CF000100AB04206DB95ED020AB5EEC00AF1EE0D
:102D000010FA01D8002070BD012070BDBD37863596
:102D10002DE9F0470C462DED048B07469946B0EEA1
:102D2000608A164611462046DDF8308003F057FDD4
:102D3000B0EE409AB0EE480A3146204603F04FFD0F
:102D40009FED248A0024F0EE409AF0EE488A012597
:102D500027E000BF07EB850090ED000AB4EEC90A3A
:102D6000F1EE10FA1CDBB4EEE90AF1EE10FA17D816
:102D700050ED010AF4EEC90AF1EE10FA10DBF4EEA0
:102D8000E90AF1EE10FA0BD830EE600AB9F1000F43
:102D900001D00FF0BAFA40EE008A38EE008A641CC7
:102DA0006D1CB542D6DB00EE104AB8F1000FF8EE0C
:102DB000C00A88EE200A00EE904AB8EEE01AC8EE8B
:102DC000810A40EE400A01D0B0EE600ABDEC048BEF
:102DD000BDE8F0870000000038B58C1A0BD5012340
:102DE00080F8553300920B46022204A1104604F5E8
:102DF000B46409F019FD204638BD0000522F41256A
:102E0000643A205343442C25642C25640A000000B6
:102E100070B50D4604462DED028B032110460DF0D2
:102E2000A7FA04F54270B0EE408AC16A00EB810156
:102E300081ED000AD0E90A21521E914201D1002100
:102E400000E0491C9FED270AC1620022F0EE400A13
:102E5000816A08E000EB8203521C93ED001A01EE38
:102E6000010A70EE810A8A42F4DB01EE101AF8EED4
:102E7000C11A80EEA11A00EE901AF8EEE01AC0EE28
:102E8000210AB0EE480A41EE410AC5ED000A18F0E9
:102E9000FDFC0100144807D00068008880041BD1A5
:102EA0000023122211A114E094ED280AB4EEC80AFE
:102EB000F1EE10FA06DC94ED290AB4EEC80AF1EE40
:102EC00010FA0DD200680088800405D10023122278
:102ED00009A1122009F0A8FC0120BDEC028B70BDF5
:102EE0000020FAE70000000088050020522F41254D
:102EF000643A202F7A000000522F4125643A206E58
:102F00002F00000090F841333B2B07D3012180F8BC
:102F10005B13032202A1104609F086BC7047000033
:102F2000522F4125643A2041525F534C4545505F32
:102F300046554C4C2C25640090F8561300290FD1AF
:102F400090F834100A290BD1012180F8561306217C
:102F500080F834100123032202A1104609F064BC5A
:102F600070470000522F4125643A205374617274F7
:102F7000206E6F74696365206576656E74320A0031
:102F800070B5044690F852030D46002618B1002093
:102F900084F8520322E0A978E878C1EB011100EB34
:102FA0008100697894F83720914201D000F5B4602F
:102FB00094F8382094F83910C2EB021201EB820128
:102FC000401A002801DD012100E0002184F854139B
:102FD0000FF020FD0A2801DD012602E02868C4F870
:102FE0003600304670BD000010B591ED010ADFEDEE
:102FF0001B0A0446087E20EE200ADFED190A9FED29
:10300000191A78B184ED601AD4ED610A10EE900AB5
:10301000B0F17E5F04DA30EE800A84ED610A10BD03
:10302000012017E084ED611A94ED601AB4EEE01A05
:10303000F1EE10FA04D231EE000A84ED600A10BD00
:1030400094F89E0128B10322012307A1104609F03C
:10305000EBFB002084F89E0110BD0000BD378635D3
:103060009A99993E00000000522F4125643A204170
:10307000525F554E544F554348000000FFB5194D5F
:103080009FED160ADFED160AF0CD8DE8F000002363
:103090006E460727CC180834B4FBF7F507FB154537
:1030A00036F8134030F815505B1C6C4301EE104AA3
:1030B0009BB2072BB8EEC11A31EE000AEAD320EE1C
:1030C000200A10EE100A82ED000AB0F17E5F02DBEA
:1030D000012004B0F0BD0020FBE70000000000006C
:1030E000ACC5273704A3020070B590ED180AD1EDE6
:1030F000000A04460D4630EE200A80ED180A90EDD5
:10310000190AD1ED010A30EE200A80ED190A90ED7E
:103110001A0AD1ED020A30EE200A80ED1A0AD0ED2B
:103120001B0A91ED000A40EE000AC4ED1B0AD4ED23
:103130001C0A95ED010A40EE000AC4ED1C0AD4ED0C
:103140001D0A95ED020A40EE000AC4ED1D0A95ED38
:10315000000AD5ED010A20EE000A00EEA00AD5ED26
:10316000020A00EEA00A11F0EFFCD4ED1E0A30EEC8
:10317000200A84ED1E0A95ED000AD5ED010A20EE25
:10318000000A00EEA00AD5ED020A00EEA00AD4ED76
:103190001F0A30EE200A84ED1F0A70BD70B5044688
:1031A0000D4608783C22062104F0FAFF6083687817
:1031B0000A22012104F0F4FF2084A8780A220121C8
:1031C00004F0EEFFA083E8784FF46152C0EB0010EA
:1031D00080004FF4966104F0E3FF208328794FF4D8
:1031E0001672C0EB001080003C2104F0D9FFE08390
:1031F00068790F22062104F0D3FF6084A8790522A4
:10320000012104F0CDFFA08470BD70B504461D46B9
:103210000078637898420CD1A678B04209D0012E8C
:1032200005D11046FEF74FF908B16078A0706078BC
:1032300007E0984207D0A278934204D0904202D08F
:103240000020287070BD297070BD2DE9F041044642
:103250002DED028B0A2190F82600B0FBF1F2460812
:1032600001FB120200F0010700250AB9A4F868501A
:10327000B0FBF1F201FB1201052901D1A4F86A505B
:1032800008B9A4F8AC5094ED040AD4ED050A20EE78
:10329000000A00EEA00AD4ED060A00EEA00A11F022
:1032A00053FCF1EE000A20EE200ABCEEC00A10EE3C
:1032B000100A80B217B904EB46010D8504EB4601F4
:1032C0000A8D02440A85B4F8681001448DB2A4F84E
:1032D0006850B4F86A10014489B2A4F86A10B4F8CE
:1032E000AC201044A4F8AC0094F826000522B0FBF2
:1032F000F2F302FB1300042832D10846FDF7A4FACA
:1033000041EC180B2846FDF79FFA41EC100BB0EE8C
:10331000481AF0EE681A0FF03BFE51EC100BFDF767
:10332000BFFA80B2FDF790FA41EC180B94F86400F4
:1033300004EB4000B0F86C00FDF786FA41EC100B8E
:10334000B0EE481AF0EE681A0FF022FE51EC100BA6
:10335000FDF7A6FA94F8641004EB4101A1F86C00A3
:1033600094F826003B2808D194F86410B4F8AC0017
:1033700004EB41014008A1F8B000BDEC028BBDE8B0
:10338000F0810B7D0370497D41703C21B2FBF1F36C
:103390008370B2FBF1F301FB1321C1707047000091
:1033A0002DE9F04F00F5836685B017460D4683463C
:1033B00000F20C4A91ED030A741C0EF0A6FF10EE09
:1033C000100ADFF89C80404512DC95ED040A0EF0EF
:1033D0009CFF10EE100A40450ADC95ED050A0EF040
:1033E00094FF10EE100A1F49884201DB012000E023
:1033F00000208046A9694FF07E50814207DCE969D0
:10340000814204DC296A814201DC012500E00025BB
:103410004FF0000904A94FF4FA72CDE90027CDE975
:1034200002918DF810902B4602225146584600F02A
:10343000DBFCB84302D084F8009005E09DF8100052
:10344000054201D001202070B8F1000F03D0207890
:1034500008B1012000E00020307005B0BDE8F08F19
:103460000AD7A33D3333733F2DE9F04104460646A6
:10347000D0F8340291ED121A154688B1D6EDB40A8F
:1034800096EDB30A0FF0CEFA2870D6F8D422014692
:1034900004F57076A069331D347800272CB107E05D
:1034A000D6EDB20A96EDB10AECE709B1012400E0CD
:1034B000002431EA040405D01C68041B944202D3A2
:1034C0000127801A186031706F70BDE8F08100002C
:1034D00010B5094981640949C1640949016509496F
:1034E0004165094981650949C1650949016609A024
:1034F00000F014FB002010BD01370000498C0100D2
:103500006D8001001981010089800100297E010080
:10351000A56E0100405F406464313D310000000051
:1035200010B5094981640949C1640949016509491E
:103530004165094981650949C1650949016609A0D3
:1035400000F0ECFA002010BD05370000ED8C010002
:1035500071800100F5810100A1800100517E010010
:1035600011700100405F406464323D310000000092
:1035700010B5094981640949C164094901650949CE
:103580004165094981650949C1650949016609A083
:1035900000F0C4FA002010BD093700008D8D010035
:1035A0007580010035830100AB800100797E010048
:1035B0007D710100405F406464333D3100000000D4
:1035C00010B5094981640949C1640949016509497E
:1035D0004165094981650949C1650949016609A033
:1035E00000F09CFA002010BD0D370000198E01007C
:1035F000798001007D830100B9800100997E01007E
:10360000DD710100405F406464363D310000000020
:1036100010B5094981640949C1640949016509492D
:103620004165094981650949C1650949016609A0E2
:1036300000F074FA002010BD11370000A58E0100C3
:103640007D800100B9840100D1800100C17E0100AC
:103650002D730100405F406464353D31000000007F
:1036600010B5094981640949C164094901650949DD
:103670004165094981650949C1650949016609A092
:1036800000F04CFA002010BD15370000358F010006
:103690008180010009860100E9800100E97E0100C6
:1036A00029750100405F406464373D31000000002F
:1036B00010B5094981640949C1640949016509498D
:1036C0004165094981650949C1650949016609A042
:1036D00000F024FA002010BD19370000C58F01004A
:1036E000858001004D87010001810100117F0100EB
:1036F00025770100405F406464343D3100000000E4
:10370000002070470020704700207047002070475D
:10371000002070470020704700207047F0B5044635
:1037200090F824000027B9B00D46800700D5012786
:10373000022000F0A1FA924EE8B3D6E91401914AB2
:103740000023FCF7EDFDD5ED041AB2EE040A95ED69
:10375000051AD5ED070A61EE801A21EE001A60EE17
:10376000800AFDEEE11ABDEEC11AFDEEE00ACDEDD4
:103770000A1A8DED0B1ACDED0C0A0D90D5ED030A4A
:1037800094ED221AB5F90A1020EE800ADFED7E0AC8
:10379000B5F90800CDE9060121EE201ABDEEC00AF8
:1037A000BDEEC11A8DED081A8DED090AB5F90600B6
:1037B00094ED210A00E01AE020EE200AB5F9042079
:1037C000B5F90210CDE90212BDEEC00A3A468DED00
:1037D000040A0590B5F900106068CDE90001236B7B
:1037E0006A48316921F018FA3069401C3061002FB5
:1037F0007DD12079C00733D094F83000C0072FD096
:1038000098210EA8FCF73DFED5E90001CDE937016E
:1038100037A8D4F8801008F001F894ED210A0322AB
:1038200034A937A809F030FF002034AB0E9093E89C
:1038300007000FAB83E80700207900070DD594F847
:103840003000000709D5A86938B1B7EE000A8DED40
:10385000160A95ED070A8DED170A0EA8FEF75AF91C
:103860002079800724D594F83000800720D598214E
:103870000EA8FCF706FED5F8060037906889ADF86B
:10388000E00037A8D4F8801007F0C8FF94ED220AB2
:10389000032234A937A809F0F7FE012034AB0E90BB
:1038A00093E807000FAB83E807000EA8FEF732F994
:1038B0002079400746D594F83000400742D598213A
:1038C0000EA8FCF7DEFD0C3534AB95E8070083E865
:1038D0000700A06F34AA012825DD182823D82C4919
:1038E00000EB400034AF431897E8230000E029E0E4
:1038F0008DE8230000206D46DB1E1956002907DAEB
:10390000494205EB810111ED010AB1EE400A03E0E5
:1039100005EB810111ED010A02EB8001401C81EDF4
:10392000000A0328E9DB0220BFEE000A0E9034AB48
:103930008DED120A93E8070013AB83E807000EA889
:10394000FEF7E8F81DF042FFB0B9306A844213D1A7
:103950002079C00710D094F83000C0070CD0D6E909
:103960001423204612F0E9FC0246042000F08EF9F0
:1039700010B91046FEF76CFF39B00020F0BD000012
:103980000801002040420F000024744974A4020082
:10399000747102007CB5044690F82400002580076D
:1039A00000D50125082000F067F990B1164E154AA0
:1039B0000023D6E91401FCF7B3FC6168CDE90010DF
:1039C0002A46236C11A0F16821F026F9F068401C0A
:1039D000F060206C022812D18DB92079800702D5C1
:1039E0000120FEF7B3F82079C00702D00020FEF7CF
:1039F000ADF82079400702D50220FEF7A7F8002095
:103A00007CBD000040420F00080100205441473DAA
:103A10004453464520534E2825642941582825649F
:103A20002947444D282564294555522825642954A1
:103A30005328256429000000FEB5044690F82400B0
:103A40000026800700D50126082000F015F9244D36
:103A500098B1D5E91401234A0023FCF761FC6268A0
:103A6000216A0092CDE901103246236C1EA0A9689C
:103A700021F0D2F8A868401CA860206C02282DD143
:103A800066BB207980070BD5206A4FF47A714843D2
:103A9000C117CDE90001D5E914230120FEF758F83C
:103AA0002079C0070BD0206A4FF47A714843C117C0
:103AB000CDE90001D5E914230020FEF749F820796B
:103AC00040070BD5206A4FF47A714843C117CDE9FE
:103AD0000001D5E914230220FEF73AF80020FEBDCC
:103AE0000801002040420F005441473D44534653D3
:103AF00020534E2825642941582825642947444DE0
:103B000028256429455552282564294454552825DB
:103B1000642954532825642900000000014601202F
:103B200005F06CBE10B521F06DF84FF47A720023E9
:103B3000FCF7F6FB10BD000001490160072070474B
:103B40009C7202002DE9FE4F8146DDE90C569A4633
:103B500017468846042000F08FF868B1114C3B46A8
:103B60004246606C0095CDE9016049460EA021F007
:103B700053F8606C401C6064CDE9005653463A46E9
:103B80004146484621F0E6F80446042000F074F867
:103B900020B100222946504611F08CFB2046BDE89A
:103BA000FE8F000008010020444D4C3A206932632A
:103BB0005265616420616464723D307825582072DA
:103BC00065673D3078255820726567533D25642030
:103BD00072533D256420623D256420736E3D25644B
:103BE000000000002DE9FE4F8246DDE90C561F461D
:103BF00090468946042000F03FF890B10E4C4346B1
:103C00004A46606C0095CDE9016051460BA021F059
:103C100003F8606C0022401C60642946384611F0AD
:103C200049FBCDE900563B4642464946504621F005
:103C3000A1F8BDE8FE8F000008010020444D4C3A79
:103C400020693263577269746520616464723D3023
:103C5000782558207265673D307825582072656751
:103C6000533D25642077533D256420623D25642023
:103C7000736E3D25640000000349896B014201D049
:103C80000120704700207047080100200349C96BDC
:103C9000014201D001207047002070470801002038
:103CA00010B504468020FFF7E7FF18B1214604A0B5
:103CB00020F0B2FF2046BDE8104021F0CDB8000052
:103CC000444D4C3A2075536C6565702025640000A6
:103CD000F0B504468DB00E461546104622F0F4FCB1
:103CE00000287CD13146684622F09FFE6A46214674
:103CF00006A822F08EFE6946084622F096FE31465E
:103D00002A46084622F085FE2946084622F08DFE06
:103D10002146344B2A46084622F02CFD2A461146FD
:103D2000304B084622F026FD2A462E4B21461046EF
:103D300022F087FE21462A46084622F06AFE2246E5
:103D4000284B1146284622F015FD2146254B2A46D0
:103D5000084622F00FFD0021204622F0CCFF084348
:103D60000DD021461F4A084622F05CFC074620463B
:103D700022F0F4FE626942EAC772626102E0204604
:103D800022F0ECFE2146284622F04FFE2946154B34
:103D900006AA084622F055FE2946124B06AA0846F6
:103DA00022F04FFE06A90F4B2A46084622F049FE94
:103DB000214606AA084622F02CFE6A46094B2146F7
:103DC000104622F03EFE2946204622F0E3FE314610
:103DD000284622F0DFFE6946304622F0DBFE0DB0B9
:103DE000F0BD0000380400202DE9F04F0446DDE965
:103DF000098BDDE90B9A0D68A4690E7A4FF0000C6F
:103E0000604642F20F77AC4200D22546012A02D02A
:103E1000022A05D102E023EA060001E026EA0300B7
:103E2000B8F1FF3F08D05FEA0B0205D1621B4245A3
:103E300002D34FF0010C03E008B1671B00E02C46F1
:103E40005FEA090201D0C9F80040BAF1000F01D0C1
:103E50008AF800C0C1E900470B72BDE8F08F10B5C9
:103E60000B7820EA0304834312B1107054709370EE
:103E7000087010BD70B50446012020700025A4F81C
:103E8000975184F899511A2104F5B070FCF7F9FAAA
:103E9000302104F10C00FCF7F4FAA570162084F828
:103EA000940184F8905184F8915184F8925184F8E7
:103EB000935184F8955184F8965100202118401CA4
:103EC00081F870510328F9DB9FED020A84ED5F0A47
:103ED000656070BD00000000F0B5184EDFED180AF7
:103EE000002200BF00EB820501EB820395ED000A82
:103EF000D3ED031A93ED001A30EE210A30EE411A89
:103F000011EE104AB44206DD31EEE01A30EE600ADE
:103F100083ED031A0AE011EE104A0A4FBC4205D99C
:103F200031EEA01A30EE200A83ED031A83ED000A69
:103F3000521C85ED000A032AD4DBF0BD0000344397
:103F40000000B443000034C32DE9F04100F555777B
:103F50002DED028B00F5537438780E46B0EE408A92
:103F6000002500B17EB17EB1D4ED000AB0EE480A62
:103F70000EF0D3F984ED000AD4ED010AB0EE480A40
:103F80000EF0D3F90AE00125D4E900019FED070AFC
:103F9000C2E9000184ED000A9FED050A284684ED80
:103FA000010A3E70BDEC028BBDE8F0819A3F1CC651
:103FB0009A3F1C462DE9F04116462DED048B044630
:103FC0001F460D46D0F8342290F8100294F81814C9
:103FD0000023337094EDA99AD4EDA88A00B132B1D0
:103FE00094EDAA8A94F86803012803D004E094EDC4
:103FF000AB8AF7E7B7EE008A94F8800200F00F0072
:10400000012802D004281CD01FE0F1B1D4F8B0027E
:10401000DFED280A002806DA9FED270A68EE808A7D
:1040200028EE008A11E005DDB6EE000AF0EE608AA7
:1040300028EE008A00EE100AB8EEC00A00EE608A90
:1040400003E09FED1E8ADFED1E8A95ED0E0A0EF04D
:104050005CF9B4EEC80AF1EE10FA0ADB95ED0A1A23
:10406000F0EE680AB0EE490A0EF0DCFC08B101205F
:1040700000E00020307094F89502A8B195ED0F0A89
:104080000EF043F9B4EEC80AF1EE10FA0ADB95ED32
:104090000A1AF0EE680AB0EE490A0EF0C3FC08B145
:1040A000012000E0002038703078BDEC048BBDE8C2
:1040B000F0810000CDCC4C3E0000C8420AD7233D21
:1040C0000AD7A33D2DE9FC4700260020009001906F
:1040D0004FF480770125002410E038461BF0EEFBFA
:1040E00040B100BF25480068284018B138461BF091
:1040F000D7FB2E436D00381D87B2641C082CECD30F
:104100004FF4BE701BF0DAFB50B14FF4BE701BF0E1
:10411000C7FB46F000466A46022100201BF0ACFABD
:10412000F0B210B3012500241DE005EA0600C0B17D
:1041300000BF134850F82400C0F30520814600BF9B
:104140000F4850F82400C0F30140824620460AF090
:104150003FFF8046B8F1000F02D051464846C047A5
:1041600000BF6D00641C082CDFD306F0004010B1C6
:1041700068461DF043FABDE8FC8700000463004078
:10418000106500402DE9F04F04462DED028B83B001
:1041900000F26930029004F26B3001900020009030
:1041A000571C884603F101091D78FE1D1278012174
:1041B0002046D4F8983201F07FFD834694F89502AA
:1041C00040B120462A464FF0FF31D4F8983201F032
:1041D00073FD009094EDAD0A98ED0E8A04F55C75C0
:1041E000F8EEC00A94EDAE0A2A1D2046B8EEC00AC9
:1041F000B4EEE08A5946F1EE10FA06DB95ED001AAE
:10420000B4EEE01AF1EE10FA0BD3B4EEC08AF1EE80
:1042100010FA09D8D5ED000AF4EEC00AF1EE10FA52
:1042200002DD13685B1C13604FF0000A19B91368B4
:10423000F360C2F800A03246B0EE480AFFF784FEF1
:10424000307485ED008A3A4658460299FFF707FE1A
:1042500094F8950220B1DDE900014A46FFF7FFFD21
:10426000B87878B196ED010A0EF04FF8B0EE408ABA
:1042700096ED000A0EF049F8F0EE480A0EF04DF8FF
:1042800086ED020A787828B19FED270A84ED900A1E
:10429000C4F838A23878B2EE040AF0B1D8ED0A0AB0
:1042A00080EE801AD4ED900A71EE200AC4ED900AD7
:1042B000D4F838120E980144C4F83812D4F83412E5
:1042C000204651B9D0F84012B1F17E5F01DB0121E7
:1042D00001E04FF0FF3180F8681394F89502E8B1DF
:1042E00099F8010038B1D8ED0A0A80EE801A84ED01
:1042F0009D1AC4F86CA299F8000078B1D8ED0A0AAA
:1043000080EE801A94ED9D0A31EE000A84ED9D0A3C
:10431000D4F86C120E980844C4F86C0203B05846E6
:10432000BDEC028BBDE8F08F000000002DE9FC5FC2
:10433000884600210191044600F26A3A00F55B7B51
:10434000151D5F1C9178D0781E1DDDF8309001435B
:1043500001D0012200E0002220460121D4F89C3245
:1043600001F0CDFC009094F8950270B17878B9789E
:10437000084301D0012200E0002220464FF0FF3127
:10438000D4F89C3201F0BBFC01902A4651460098BB
:10439000FFF765FD94F8950220B132465946019821
:1043A000FFF75DFD68789FED190A002118B184EDD3
:1043B000910AC4F83C12287860B1D4ED910A98EDC6
:1043C0000C1A70EE810AC4ED910AD4F83C224A44DA
:1043D000C4F83C2294F89502A8B1707818B184ED25
:1043E0009E0AC4F87012307868B194ED9E0AD8ED38
:1043F0000C0A30EE200A84ED9E0AD4F8701201EB0C
:104400000900C4F870020098BDE8FC9F000000009D
:1044100001460020012903D0022903D11AF082BBF2
:104420001AF07ABB704700002DE9F04100F56C747A
:104430002DED028B251DB0EE608AF0EE408A00F56E
:104440006E76002791B394ED000A30EE680A0DF005
:104450005CFF94ED000AB4EEC80AF1EE10FA0BDB33
:104460009FED180A28EE000AB4EEE80AF1EE10FA01
:1044700002DD3068401C306094ED000AB4EEC80ADA
:10448000F1EE10FA0BD89FED100A28EE000AB4EEF8
:10449000E80AF1EE10FA02D22868401C2860C4ED48
:1044A000008A3846BDEC028BBDE8F081FFE7286842
:1044B0003168084400EBD07047100020286030605D
:1044C000EDE70000CDCC4C3F9A99993F70B51C4662
:1044D000002932D0642930D8B8B1002313E000BFDE
:1044E00000EB830592ED000AD5ED000A5B1C30EE6F
:1044F000200A82ED000AD4ED000A95ED000A40EE94
:10450000000AC4ED000A8B42EADB00EE101A92EDBD
:10451000001AB8EE400AC1EE000A00EE101AF8EEDA
:10452000401AC2ED000A94ED001A81EE210A00EE55
:10453000E00A10F009FB84ED000A70BD1AF019BB07
:104540002DE9FF4F05462DED028B89B0824600F51F
:104550003C7005904FF0000B0AF21C40CDE9000BB7
:10456000041DCDF808B0CDF80CB005F22D4705F5C7
:10457000866800780AF22C4905F2544510B10D986E
:10458000002870D00020049091ED000AD1ED018A3E
:1045900091ED028A00220A210AF170000EF024FE39
:1045A0000022B0EE680A0A210AF198000EF01CFE03
:1045B0000022B0EE480A0A210AF1C0000EF014FEF3
:1045C0009AED210A8DED010A9AED2B0A8DED020A72
:1045D0009AED350A8DED030A0D98E8B1002601A881
:1045E00000EB8600079090ED000A0DF08EFE04EBC4
:1045F00086000690D0ED000AB4EEE00AF1EE10FA63
:1046000007DB079890ED000A0DF07FFE069880ED1D
:10461000000A761C022EE2DD049880B3D4ED020A73
:1046200094ED010A0DF079FEF0EE400A94ED000AD7
:104630000DF073FEB0EE408A5FF0000604EB8600DA
:1046400090ED000A38EE400A0DF05FFE10EE100A01
:104650006F49884214DA46B1012E08D0022E0AD0E2
:10466000002009E0FFE701208DE7012100E00221A1
:1046700089F8001007E0032089F8000003E006E055
:10468000761C022EDADD99F800108AF8FC110D98DC
:1046900048B300260DF1040206EB460102EB86004A
:1046A00008EB810390ED000AD3ED020AB4EEE00AB4
:1046B000F1EE10FA05DBDAF8180048F8210083ED76
:1046C000020A05EB8103D3ED020AB4EEE00AF1EE33
:1046D00010FA05D8DAF8180045F8210083ED020A2F
:1046E000761C022ED8DD0498E8B306EB460058F895
:1046F0002010C9B355F82000B0B32968D8F80000DD
:10470000814201D8042000E005203870E968D8F81B
:104710000C00814201D8062000E007207870A969CA
:10472000D8F81800814201D8082000E00920B870AC
:104730000E9860B3059890ED050AB5EEC00AF1EE4B
:1047400010FA01DB082000E00720B87099F800009B
:10475000032823D0D4ED020A94ED010A0DF0DDFD0B
:10476000F0EE400A01E029E012E094ED000A0DF0BD
:10477000D4FDD4ED020AB0EE001A60EE810AF4EE28
:10478000C00AF1EE10FA09DD032089F8000005E007
:10479000002001463954401C0228FBDD99F8000036
:1047A000012805D0022805D0032805D0002004E008
:1047B000387802E0787800E0B87883460D98E8B958
:1047C0000020DFED140A9FED140A014604EB80027D
:1047D000C2ED000A00EB4002395408EB8203401C92
:1047E00083ED020A05EB820348F8221083ED020AEA
:1047F00045F822100228E9DD89F8001000990D988B
:10480000087009B05846BDEC028B04B0BDE8F08FCB
:10481000BD378635003C1CC60000000030B5344D65
:1048200091B00C460DA9E86811F077FB6A460121AA
:104830000DA802F0B7FA231D224604A9E86811F07A
:1048400059FBDDED000A9FED2B0A60EE800AFDEEBC
:10485000E00AC4ED020ADDED010A60EE800AFDEE19
:10486000E00AC4ED030ADDED020A60EE800AFDEE07
:10487000E00AC4ED040ADDED030A20EE800ABDEE75
:10488000C00A84ED050ADDED040A9FED1B0A60EE07
:10489000800AFDEEE00AC4ED060ADDED050A60EED1
:1048A000800AFDEEE00AC4ED070ADDED060A60EEBF
:1048B000800AFDEEE00AC4ED080ADDED080A60EEAC
:1048C000800AFDEEE00AC4ED090ADDED090A60EE9A
:1048D000800AFDEEE00AC4ED0A0ADDED0C0A20EEC6
:1048E000800ABDEEC00A84ED0B0A11B030BD000095
:1048F000F853002020BCBE4CCA1B0E5AF0B504462B
:104900002DED088BB0EE408A83B016460F46D0EDF1
:10491000130A90ED111A002580EE810A10EE100A9C
:10492000FBF7D7FF9FED9ABB53EC1B2BFBF79AFECF
:10493000FCF712F800EE100A0321384620EE009A28
:104940000BF016FD10EE100AB0F17C5F07DD20467B
:1049500004F0B2F8681E03B0BDEC088BF0BDDFEDCB
:104960008EAA97E807008DE80700D4ED110AF7EE4C
:10497000009A032289EEA00A012168460BF040FD4F
:104980009DED020A0EF04EFF00EE100AF8EEC08A0E
:104990009DED010A0EF046FF00EE100AB8EEC0AA27
:1049A0009DED000A0EF03EFF00EE100AF0EE481AF0
:1049B000B0EE681AB8EEC00AF0EE4A0A204604F0DB
:1049C000B7F820461FF0D8FF00287DD0606B002884
:1049D0007BD000EE100AB8EE400A89EE808A94ED92
:1049E000000A20EE080A0EF01DFF00EE100AD4EDBA
:1049F000110AB8EEC00A20EE200A84ED060A94EDF2
:104A0000010A20EE080A0EF00DFF00EE100AD4EDA8
:104A1000110AB8EEC00A20EE200A84ED070A94EDD0
:104A2000020A20EE080A0EF0FDFE00EE100AD4ED98
:104A3000110AB8EEC00A20EE200A84ED080A94EDAF
:104A4000000A20EE001A94ED030A01EE480A60EE17
:104A5000088AC4ED098A94ED010A20EE001A94ED4B
:104A6000040A01EE480A20EE08AA84ED0AAA94ED91
:104A7000020A20EE001A94ED050A01EE480A20EE23
:104A8000088A84ED0B8A94ED141A81EE200A10EE48
:104A9000100AFBF71EFF53EC1B2BFBF7E3FDFBF7A4
:104AA0005BFF00EE100A3D4820EE000A79EE000A96
:104AB00039EE400AF4EEC08AF1EE10FA03D918EE8E
:104AC000901A81421CDA01E05FE014E0B4EEC0AA63
:104AD000F1EE10FA03D91AEE101A814210DAB4EE90
:104AE000C08AF1EE10FA03D918EE101A814207DAE3
:104AF000C6ED009A45E0204603F0DEFF28462AE78F
:104B0000F4EEE08AF1EE10FA0CDDB4EEE0AAF1EE7C
:104B100010FA07DDB4EEE08AF1EE10FA02DDC6ED20
:104B200000AA2FE030EEC00AB5EEC00AF1EE10FA8E
:104B3000DEDD89EE80AA78EEC90AB6EE008AB0EE14
:104B4000480A00EECA0A1FF07FFBF0EE408A94ED9F
:104B50000A0A70EE490AB0EE480A00EECA0A1FF0CF
:104B600073FB68EE808A94ED0B0A30EE490A00EE82
:104B70004A8AB0EE480A1FF067FB28EE800A86EDED
:104B8000000A0125204603F097FF84F83050B5E76E
:104B9000399D52A246DF913F00000000BD378635A7
:104BA00010B590F83C2090F83D10C2EB021201EBDA
:104BB0008202C379047AB0F83213A34203D2B0F868
:104BC0003033994201D3914203DAB0F83013A0F8A0
:104BD000321310BD2DE9F04101F144042DED048B99
:104BE000B7EE009AF6EE008A90F8B003B0EE008AB5
:104BF00000287DD094F8AC00002879D000EE100A8F
:104C0000D4ED140A94F8AE00B8EE400A04EB80002C
:104C10000021012280EE801A80ED1C1A94F8AE006B
:104C2000401CC0B284F8AE00032804D384F8B3203B
:104C300084F8AE1003E094F8B300002858D094ED47
:104C40001C0AD4ED1D0A132030EE200AD4ED1E0AF2
:104C500030EE200AF0EE080A80EE201A84ED191AD0
:104C600004EB8003401E13ED010A002883ED000AC7
:104C7000F6DC94ED190A84ED000A94F8AD00401CAE
:104C8000C0B284F8AD00142804D384F8B22084F8AC
:104C9000AD1003E094F8B200002865D00025DFEDE8
:104CA000349A2846691C01EB81010B1A00EE903AF8
:104CB00004EB8006B0EE690A06F17C0206F18C076F
:104CC000B0EE402AB8EEE03A09E000BF04EB800302
:104CD000401CD3ED002A02EEA22A32EE800A88425E
:104CE000F4DBC0EE032A82EE030AC2ED002A00E0E4
:104CF0003AE002EEE20A0FF027FF87ED000A96ED98
:104D0000230AF0EE481AB0EE681AF0EE490AFDF7F1
:104D10009DFF6D1C86ED270A042DC2DB94ED270A4A
:104D2000DFED140A9FED141A20EE200AD4ED280AB4
:104D300000EE810AD4ED290A9FED101A00EE810AD7
:104D4000D4ED2A0A9FED0E1A00EE810A10EE100A29
:104D500084ED160AB0F17C5F03DD94F8AF00401CCF
:104D600000E0002084F8AF00BDEC048BBDE8F081CA
:104D700000000000CDCCCC3E9A99993ECDCC4C3E63
:104D8000CDCCCC3DFEB5054600F1340490F895033A
:104D90000F4605F5A876042810D13246204601F0CA
:104DA00018FB2046FEF7C8F8B7F84A0010B1B4F86F
:104DB0002E0301E0B4F83003A4F82C030E2332468E
:104DC0003946284601F06CFB0096B4F830230723DF
:104DD0003946204601F0E2FA072084F83400012029
:104DE000E070002285F89423F87D95F895138DE8FE
:104DF00007000322BB7D03A1104607F015FD042028
:104E0000FEBD0000522F4125643A205B484E535DA1
:104E100025643A25642C7072657653742025642CC1
:104E2000207374202564000070B5044600F1340539
:104E300094F8E5232846002382B190F856236AB9F6
:104E400091F844205AB191F8462042B9028A521C86
:104E500092B20282012A04D0022A00D903820020E1
:104E600070BD0382052084F89403284605F58E72F0
:104E700001F0AFFA2846FEF75FF8032294F8B63344
:104E800002A1104607F0D0FC052070BD522F41252D
:104E9000643A205B484E5D20736C704F6E20256431
:104EA000000000002DE9FC41054600F1340490F8B3
:104EB000950300260F46052802D007281ED031E0B2
:104EC000606942F63021884204D91AB1062085F87B
:104ED000940327E0207828B36FF00900C4F8480352
:104EE000072085F89403B7F84A0010B1B4F82E03F0
:104EF00001E0B4F83003A4F82C0313E0B5F8E003A4
:104F0000E16951FA80F0E0612046FFF749FE6078E0
:104F100008B1E07948B1207820B139462846FFF73A
:104F200031FF06463046BDE8FC81217BB4F83203F0
:104F3000CDE90001032295F8943310A1104607F043
:104F400073FC052085F894030020E061207384F849
:104F50003E0394F8581311B184F85803E2E704F5BE
:104F60008E733A462146284601F058F9B4F83223A8
:104F7000394604F13A00FEF704FAD3E7522F4125EF
:104F8000643A206261636B546F536C6565703A20BC
:104F9000737425642C2074696D652025642C20773A
:104FA0006B436E74256400002DE9FC41044600F15A
:104FB00034064FF0000890F88E030D46474652B174
:104FC00050B995F8280010B195F82A0018B320467A
:104FD00000F090F91CE080B194F89513E87DCDE9DC
:104FE00000010322AB7D2EA1104607F01DFC3046C8
:104FF00001F014FF84F894730DE095F8280010B1C7
:1050000095F82A0038B1204600F078F884F89473B7
:105010000120BDE8FC8105F114013046FDF7B0FF29
:1050200088B396F8530370BBE87D00900322AB7DF4
:1050300027A1104607F0F8FB012086F853030B2048
:1050400086F8340094F8950305281FD396F8381095
:1050500096F83900C1EB011100EB8100A6F830038E
:1050600006F58E722946204601F06AF994F89503F8
:10507000052809D0072807D05FF0060084F8E4036C
:1050800084F8947308E009E00420F7E7304601F063
:10509000C5FE204602F038F84FF001084046B8E758
:1050A000522F4125643A205B485352465D25643AAD
:1050B00025642C206973456E6420737425642C521A
:1050C00065737461727420736C6565705F320A0079
:1050D000522F4125643A205B485352465D6C617201
:1050E00067652074696D6520646966662C20746943
:1050F0006D653D25643A256400000000FEB50E464E
:1051000091F82A10044600F1340509B127A200E005
:1051100029A296F8280094F8E233984201D00120A1
:1051200000E0002094F8E333994201D0012100E02F
:105130000021084339D094F89503F17D0091CDE921
:1051400001200322B37D1EA1104607F06DFB94F8E9
:10515000950304280DD0052810D3042084F8E40317
:1051600005F58E723146204601F0EAF80120E8701C
:1051700010E031462046FFF705FE09E0284601F021
:105180004DFE204601F0C0FF94F89503022801D19E
:1051900084F8E403002084F8940394EDEE0AD6ED3D
:1051A000090A30EE200A84EDEE0AFEBD63686172E2
:1051B00067696E6700000000756E746F7563680044
:1051C000522F4125643A205B5353455F305D25647F
:1051D0003A25642073656420257321202C70726544
:1051E0007653742025640A002DE9F843054600F142
:1051F000340490F8940300260F46062802D00828AD
:1052000015D061E0207800285ED06FF00900C4F866
:105210004803082085F89403B1F84A0010B1B4F8A7
:105220002E0301E0B4F83003A4F82C034CE0B5F8E9
:10523000E003E16951FA80F0E0612046FFF7B0FC3D
:10524000617805F5A872002029B3062185F894132A
:10525000E061207384F83E0394F8581369B184F830
:10526000580300BFB4F832030090032295F894333A
:1052700017A1104607F0D8FA26E013463A46214611
:10528000284600F0CBFFB4F83223394604F13A0047
:10529000FEF777F8E6E72178B1B185F894030120AD
:1052A00020710626042390463946284601F0F8F876
:1052B000CDF80080B4F8302307233946204601F0AA
:1052C0006DF8072084F834003046BDE8F88300000C
:1052D000522F4125643A206261636B546F536C65B1
:1052E00065703A20737425642C2074696D652025DF
:1052F000640A0000FEB591F82A300D46044600F11C
:1053000034060BB122A100E024A194F895030528EE
:105310001BD3EA7D0092CDE901100322AB7D21A1D0
:10532000104607F081FA06F58E722946204601F0F4
:1053300007F894F89503052805D0072803D0062020
:1053400084F8E40320E00420FAE795F8282094F894
:10535000E273BA4201D0012200E0002294F8E37324
:10536000BB4201D0012300E000231A430CD0EA7DA8
:105370000092CDE901100322AB7D16A1104607F083
:1053800053FA304601F04AFD002084F89403FEBD34
:105390006368617267696E6700000000756E746F04
:1053A00075636800522F4125643A205B5353455F73
:1053B000315D25643A25642C20736C6565704F6EF1
:1053C0002025732C20707265765374617475732573
:1053D00064000000522F4125643A205B5353455F1F
:1053E000325D25643A25642C20736C6565704F6EC0
:1053F0002025732C20707265765374617475732543
:10540000640000002DE9F0410D462DED048B0446AB
:10541000002190ED290A012004EB8002D2ED290A37
:10542000F4EEC00AF1EE10FA02DD0146B0EE600AB9
:10543000401CC0B20328EFD394F8900000B111B122
:1054400002290ED07CE094F8911002280144C9B2E0
:1054500005D0012874D1022972D3032970D8012004
:1054600067E094F8610094F860109FED369B01446A
:10547000CEB240F2DC57012829D1022E27D8A06DE8
:10548000FBF727FA41EC100B0BF0E4FAB0EE401AF0
:10549000F0EE601AB0EE418AF0EE618AE06DFBF743
:1054A00018FA41EC100B0BF0D5FA53EC182B51EC19
:1054B000100BFBF7D1F853EC192BFBF735FA06D29A
:1054C000A168206F401AB84201D2032031E094F85D
:1054D0006000012829D1022E27D8E06DFBF7F9F9E9
:1054E00041EC100B0BF0B6FAB0EE401AF0EE601A79
:1054F000B0EE418AF0EE618AA06DFBF7EAF941EC6B
:10550000100B0BF0A7FA53EC182B51EC100BFBF718
:10551000A3F853EC192BFBF707FA06D2A168E06E4B
:10552000401AB84201D2042003E0B61E032E07D869
:10553000022028700120BDEC048BBDE8F081FFE75C
:105540000020F8E70000000000002E4010B50446DF
:10555000084614F013FA002084F8200110BD10B59D
:105560000446084614F068FA002084F8BC0010BD18
:1055700010B504462021001DFAF783FF94F870004F
:10558000800706D4207DB7EE000A401C207584ED0C
:10559000070A10BD10B50446084614F013FB00209E
:1055A00044F8C40F6060A060E06010BDF0B50F4625
:1055B000054689B04FF4D2713846FAF762FF0026EB
:1055C000144CC5F8F460C5F8F860206A14F040FB8C
:1055D000206A10F058F805F1FC023846216A02F002
:1055E0001BFD20216846FAF74CFF6946206A02F04D
:1055F00011FD01208DF81E006A463846216A02F02E
:105600000BFD302107F10C00C7F88C61FAF739FF68
:1056100009B0F0BDF853002010B50446084614F058
:105620005FFB002044F8EC0F606010BD30B5C8216E
:10563000A0F8281100210C240B46143001EB410284
:1056400000EB021500EBC102491C42F8C05F0329C0
:105650009480D380F2DB00F1900140F8D81F848061
:10566000C38030BD70B5DFED2B0A00252DED028B18
:1056700084B091ED030A0E46044680EE208AB5EE12
:10568000C08AF1EE10FA04D918EE100A22498842B5
:1056900002DB6FF0030504E02068012801D06FF001
:1056A000010596ED000AD4EDD60A30EE600A8DEDC4
:1056B000000A96ED010AD4EDD70A30EE600A8DEDAE
:1056C000010A96ED020AD4EDD80A30EE600A8DED9B
:1056D000020A35B90321684616F0C4F808B16FF024
:1056E0000705BCEEC80A96E80E0010EE100AB2EEEE
:1056F000040AC4E90112C8EE000AE360A169084483
:10570000A06184ED058A2846C4ED070A04B0BDEC0B
:10571000028B70BD00007A4400007A4410B50A2064
:10572000FBF72AFF5FF0090400F0FCF900F018FA1B
:105730002046FBF721FF00F00DF8641E14F0FF0473
:10574000F2D100F0EFF900F00BFABDE810400020B4
:10575000FBF712BF2DE9F05FDFF8C4B3002400BFF0
:10576000DBF8000010F8246000EB840090F8019052
:1057700090F802A090F80380304621F0FFFB21F062
:10578000FDFB21F0FBFB21F0F9FB404621F0F6FB8D
:10579000504621F0F3FB484621F0F0FB21F0EEFBF0
:1057A000484621F0EBFB21F0E9FB21F0E7FB21F07B
:1057B000E5FB404621F0E2FB21F0E0FB21F0DEFBBF
:1057C00021F0DCFB404621F0D9FB21F0D7FB50460D
:1057D00021F0D4FB21F0D2FB21F0D0FB21F0CEFB55
:1057E000304621F0CBFB0546304621F0C7FB21F0C7
:1057F000C5FB4540304621F0C1FB21F0BFFB21F045
:10580000BDFB4540484621F0B9FB80EA0907484600
:1058100021F0B4FB21F0B2FB21F0B0FB47407D400A
:10582000504621F0ABFB21F0A9FB80EA0A07504665
:1058300021F0A4FB21F0A2FB21F0A0FB47407D401A
:10584000404621F09BFB21F099FB21F097FB80EA79
:105850000801DBF800004D4000F82450304621F0EC
:105860008DFB404621F08AFB504621F087FB21F05A
:1058700085FB484621F082FB21F080FB21F07EFB76
:1058800021F07CFB304621F079FB21F077FB21F001
:1058900075FB21F073FB304621F070FB21F06EFBAD
:1058A000404621F06BFB21F069FB21F067FB21F002
:1058B00065FB504621F062FB21F060FB21F05EFBAE
:1058C00021F05CFB304621F059FB21F057FB21F021
:1058D00055FB80EA0605484621F050FB074648463E
:1058E00021F04CFB21F04AFB4740484621F046FBA3
:1058F00021F044FB21F042FB47407D40504621F01F
:105900003DFB80EA0A07504621F038FB21F036FBC8
:1059100021F034FB47406F40404621F02FFB21F03F
:105920002DFB0546404685EA080521F027FB21F0BE
:1059300025FB21F023FB4540DBF800006F4000EB26
:1059400084004770304621F019FB404621F016FBD9
:1059500021F014FB504621F011FB21F00FFB21F048
:105960000DFB21F00BFB484621F008FB304621F0EF
:1059700005FB21F003FB21F001FB21F0FFFA40467B
:1059800021F0FCFA21F0FAFA21F0F8FA21F0F6FA07
:10599000484621F0F3FA21F0F1FA21F0EFFA21F074
:1059A000EDFA484621F0EAFA21F0E8FA304621F013
:1059B000E5FA21F0E3FA80EA0605304621F0DEFA46
:1059C00021F0DCFA21F0DAFA4540484621F0D6FA17
:1059D00021F0D4FA21F0D2FA80EA0900454050467D
:1059E00021F0CCFA0746504621F0C8FA21F0C6FA59
:1059F0004740504621F0C2FA21F0C0FA21F0BEFA29
:105A000047407D40404621F0B9FA0746404687EAC4
:105A1000080721F0B3FA21F0B1FA21F0AFFA4740BC
:105A2000DBF800007D4000EB84008570304621F0FB
:105A3000A5FA21F0A3FA404621F0A0FA21F09EFA3F
:105A400021F09CFA21F09AFA504621F097FA484644
:105A500021F094FA304621F091FA21F08FFA21F0EA
:105A60008DFA21F08BFA504621F088FA21F086FA5F
:105A700021F084FA21F082FA504621F07FFA21F0D9
:105A80007DFA484621F07AFA21F078FA21F076FA88
:105A900021F074FA304621F071FA80EA06053046AA
:105AA00021F06CFA21F06AFA21F068FA4540484684
:105AB00021F064FA21F062FA80EA0906484621F0F2
:105AC0005DFA21F05BFA21F059FA464075405046E4
:105AD00021F054FA21F052FA21F050FA80EA0A003B
