:020000040000FA
:10000000087A0020FD02000005030000070300003D
:10001000090300000B0300000D03000000000000B6
:100020000000000000000000000000000F030000BE
:10003000110300000000000013030000150300007E
:10004000F13C0000170300002D580000CD4E0000C9
:10005000E14E000017030000A12E0000170300006E
:10006000C157000017030000170300007143000090
:100070001703000017030000170300001703000018
:10008000170300008543000017030000170300005A
:10009000F54E0000170300001703000017030000CF
:1000A00017030000170300001703000017030000E8
:1000B000170300001703000000000000000000000C
:1000C00017030000170300001703000017030000C8
:1000D00017030000170300001703000017030000B8
:1000E00017030000170300001703000000000000C2
:1000F00000000000170300000000000017030000CC
:1001000000000000000000000000000000000000EF
:1001100000000000000000000000000000000000DF
:1001200000000000000000000000000000000000CF
:1001300000000000000000000000000000000000BF
:1001400000000000000000000000000000000000AF
:10015000000000000000000000000000000000009F
:10016000000000000000000000000000000000008F
:10017000000000000000000000000000000000007F
:10018000000000000000000000000000000000006F
:10019000000000000000000000000000000000005F
:1001A000000000000000000000000000000000004F
:1001B000000000000000000000000000000000003F
:1001C000000000000000000000000000000000002F
:1001D000000000000000000000000000000000001F
:1001E000000000000000000000000000000000000F
:1001F00000000000000000000000000000000000FF
:10020000DFF810D000F080FC0048004735400100C6
:10021000AFF30080087A002030B4044654E8000FA1
:100220000D4644E80053002BF8D1156030BC7047F0
:1002300030B4044654E8000F40EA010544E8005396
:10024000002BF7D1156030BC704730B4044654E839
:10025000000F00EA010544E80053002BF7D11560B8
:1002600030BC704730B4044654E8000F80EA010502
:1002700044E80053002BF7D1156030BC704730B410
:10028000044654E8000F00EB010544E80053002B3E
:10029000F7D1156030BC704730B4044654E8000F05
:1002A000A0EB010544E80053002BF7D1156030BCEA
:1002B000704770B404464FF0000054E8006F0D68BA
:1002C000AE4207BF44E80023012044E800630E600B
:1002D000002B1CBF0020F0E770BC704730B4044610
:1002E00054E8000F88422CBF451A054644E80053E5
:1002F000002BF5D1156030BC7047000006488047E0
:1003000006480047FEE7FEE7FEE7FEE7FEE7FEE7FA
:10031000FEE7FEE7FEE7FEE7915500000102000060
:100320002DE9F05F0546002092469B46884606462A
:10033000814640241BE0284641464746224600F0BD
:1003400060F853465A46C01A914110D311461846D8
:10035000224600F047F82D1A67EB01084F46224667
:100360000120002100F03EF817EB00094E41201E4D
:10037000A4F10104DFDC484631462A464346BDE885
:10038000F09F2DE9F0410024061B254671F100067F
:1003900005DA01240027D0EB070067EB0101161EE8
:1003A00073F1000605DA0027D2EB0702012567EB9F
:1003B0000303FFF7B5FF86460E4617469C46AC4240
:1003C00004D00025D0EB050E65EB010624B100201A
:1003D000D2EB000760EB030C704631463A466346A9
:1003E000BDE8F081202A04DB203A00FA02F1002067
:1003F00070479140C2F1200320FA03F31943904063
:100400007047202A04DB203A21FA02F000217047CD
:1004100021FA02F3D040C2F120029140084319466C
:10042000704700000048704704E901000649074A88
:100430000868504343F2390210440860400870478E
:100440000149086070470000CC0400206D4EC64191
:1004500040EA01039B0703D009E008C9121F08C046
:10046000042AFAD203E011F8013B00F8013B521EC6
:10047000F9D27047D2B201E000F8012B491EFBD23D
:1004800070470022F6E710B513460A46044619469F
:10049000FFF7F0FF204610BD421E12F8013F002B6F
:1004A000FBD111F8013B02F8013B002BF9D1704759
:1004B00010B5044604E00B7800F8013B03B1491C79
:1004C000521EF8D2204610BDCAB2401E10F8011FBD
:1004D0008A4202D00029F9D100207047421C10F84E
:1004E000011B0029FBD1801A704730B5044600205B
:1004F000034600E05B1C934203D2E05CCD5C401BF2
:10050000F8D030BD034611F8012B00F8012B002A6A
:10051000F9D1184670472DE9FE4F804681EA030065
:10052000C00F0C46009021F0004123F00045B8EBCD
:100530000200A94105D24046214690461C460B4682
:10054000024623F00040104347D0270DC7F30A00AE
:10055000C3F30A510290401A019040286BDAC3F3AA
:10056000130040F4801B0098924620B10023D2EB88
:10057000030A63EB0B0B01985946C0F14002504649
:10058000FFF730FF06460D4650465946019A00F0E7
:10059000FDF910EB08006141002487EA115284EA5A
:1005A000E7731A4340D0009A62B3019A012A4FEAD6
:1005B000075215DC001B61EB02014FF0004202EA1A
:1005C0000752CDE90042001C41F5801132462B460E
:1005D00000F034FA03B0BDE8F08F40462146F9E759
:1005E000001B61EB0201001C41F5801300185B4108
:1005F0002018A2F5001747EB030140EAD570B619A1
:100600006D4111E06D084FEA360645EAC0754FEAC4
:100610000752001B61EB0201001C41F580114908E3
:100620004FEA30000019514132462B4603B0BDE875
:10063000F04F00F0F4B90098012240000023D0EB05
:10064000020263EBE073009821464FEAE074B8EBD6
:10065000000061EB0401E9E783F000435BE781F010
:10066000004158E72DE9FE4F81EA030404F00044FD
:1006700021F0004100944FF0000B23F0004350EABA
:1006800001045ED052EA03045BD0C3F30A54C1F301
:100690000A552C44A4F2F3340194A0FB0254C1F394
:1006A000130141F48011C3F3130343F4801301FBDE
:1006B000024400FB034E840A970A44EA815447EA45
:1006C0008357A4FB076802958D0A05FB07854FEA4F
:1006D000932C04FB0C542705029D4FEA065847EA69
:1006E0001637B5EB08056EEB070C870E920E47EA3E
:1006F000811742EA8312A7FB0201B6EB0B0164EB00
:1007000000042B0D43EA0C335E1844EB1C50DA4610
:100710005146E7FB0201C5F313044FEA0B3343EAEA
:1007200014534FEA0432019C43EA0603A4F10C047B
:100730000294009CCDE900B400F080F903B0BDE85C
:10074000F08F00200146F9E72DE9F04D81EA03041E
:1007500004F0004B21F0004514464FF0000A23F04E
:10076000004150EA050220D054EA01021DD0C5F331
:100770000A570246C5F31303C1F31300C1F30A5627
:1007800040F4801543F48013A7EB0608101BD646EF
:1007900008F2FD3873EB050002D308F1010801E00F
:1007A00092185B41B8F1000F03DA00200146BDE862
:1007B000F08D00204FF48011064684460EE0171B92
:1007C00073EB050705D3121B63EB050306434CEAE5
:1007D000010C49084FEA300092185B4150EA0107CA
:1007E000EDD152EA030012D082EA040083EA050147
:1007F000084305D0101BAB4106D20122002306E0BE
:1008000000224FF0004302E06FF0010253101AEB98
:1008100006004CEB085110EB0A0041EB0B01BDE860
:10082000F04D00F0FCB80EB5C10F80EAE07008444E
:10083000CA07002140F233438DE80E000A460B46FA
:1008400000F0FCF803B000BD0EB540F23341029158
:100850000021CDE900110A460B4600F0EFF803B085
:1008600000BD70B5C1F30A5201F000450024C1F388
:10087000130140F2FF3341F480119A4201DA002063
:1008800070BD40F233439A42A2F2334203DC52423B
:10089000FFF7B7FD00E090402C43F1D0404270BD1F
:1008A00000F0004230F000400AD0C10D01F5607147
:1008B000C0F3160042EA0151C208400711437047D5
:1008C000002001467047000030B5041E71F100049D
:1008D00004DB4FF00044404264EB0101141E73F14D
:1008E000000405DB1C464FF00043524263EB040357
:1008F0008B4208BF824230BD30B5041E71F1000446
:1009000004DB4FF00044404264EB0101141E73F11C
:10091000000405DB1C464FF00043524263EB040326
:10092000994208BF904230BD01F0004330B421F03D
:10093000004150EA010206D00A0DA2F56072C1F32F
:100940001301002A02DC30BC00207047440F44EA47
:10095000C104C100E01830BC00EBC25000F028B860
:1009600030B50B46014600202022012409E021FA7F
:1009700002F59D4205D303FA02F5491B04FA02F57C
:100980002844151EA2F10102F1DC30BD202A06DB4D
:10099000CB17203A41FA02F043EAE07306E041FA4D
:1009A00002F3D040C2F1200291400843194670473B
:1009B0000029A8BF7047401C490008BF20F0010073
:1009C000704710B4B0FA80FC00FA0CF050EA010451
:1009D00004BF10BC704749B1CCF1200421FA04F4E3
:1009E00011FA0CF118BF012121430843A3EB0C01BC
:1009F000CB1D4FEA00614FEA102042BF002010BC1F
:100A0000704700EBC35010440029A4BF10BC7047CE
:100A1000401C490008BF20F0010010BC704710B511
:100A2000141E73F1000408DA401C41F10001921811
:100A30005B411A4301D120F0010010BD2DE9F04DBA
:100A400092469B4611B1B1FA81F202E0B0FA80F20F
:100A500020329046FFF7C6FC04460F4640EA0A00E3
:100A600041EA0B0153465A46084313D0114653EA54
:100A7000010019D0C8F140025046FFF7C2FC0546FC
:100A80000E46504659464246FFF7ACFC084305D097
:100A9000012004E020463946BDE8F08D00200543E2
:100AA00046EAE0762C4337430A986305E40AA0EB54
:100AB00008000022FD0A44EA47540A3002D500200B
:100AC0000146E9E7010510196941DDE9084500190A
:100AD0006941BDE8F04DA2E7C1F30A52C1F3130129
:100AE00040F2FF3341F480119A4202DA00200146BD
:100AF000704740F233439A42A2F2334202DC524240
:100B0000FFF77FBCFFF76EBC064C074D06E0E068C0
:100B100040F0010394E8070098471034AC42F6D344
:100B2000FFF772FB3CEB01005CEB010070B58C1829
:100B300010F8015B15F0070301D110F8013B2A11F1
:100B400006D110F8012B03E010F8016B01F8016BDE
:100B50005B1EF9D12B0705D40023521E0DD401F8DA
:100B6000013BFAE710F8013BCB1A921C03E013F8A3
:100B7000015B01F8015B521EF9D5A142D8D30020D8
:100B800070BD000070B50E462DED048B0446B0EE2E
:100B9000409A0025032130460AF014FCD4ED130AD4
:100BA000F7EE008A20EEA08A30EE680A0AF062FEB4
:100BB00010EE100A3B49884206DD204604F06EFC28
:100BC000681EBDEC048B70BD96EC030AF0EE491A6A
:100BD000204604F09FFC204618F004FEE8B3606B4A
:100BE000E0B300EE100AD4ED002AF8EE400A22EE3F
:100BF000A21A88EEA00AD4ED030A41EE400A20EEC4
:100C0000801A84ED091A94ED012AD4ED040AB4EE99
:100C1000C81A62EE021A41EEC00A60EE801AC4EDF4
:100C20000A1AD4ED020A94ED053A60EEA03A03EEFA
:100C3000C03A23EE003AF1EE10FA84ED0B3A26D2D8
:100C4000F4EEC81AF1EE10FA21D2B4EEC83AF1EE81
:100C500010FA1CD262EE801A01E01BE01DE022EEC9
:100C6000001A60EE800A21EEA10A0F49C4ED061AAF
:100C700084ED071A01EE010AC4ED080A00EEA00A8D
:100C800010EE100A08440949884200D20125204686
:100C900004F004FC84F8305002E0204604F0FEFB2F
:100CA00028468EE79A99993E84EBD1C05B8F8200EB
:100CB00070B50D462DED028B0446B0EE408A03213F
:100CC00028460AF07FFBDFED410A30EE600A0AF0A9
:100CD000D1FD10EE100A3E490022884203DD00BF1C
:100CE00084F8202068E095ED001AD4ED000A95ED17
:100CF000010AD5ED022A70EE811AC4ED001AD4ED76
:100D0000030A41EE010AC4ED030A94ED011A31EE23
:100D1000003A84ED013A94ED041A00EE001A84EDD5
:100D2000041A94ED020A70EE223A9FED2A0AC4EDED
:100D3000023A94ED052A02EEA22AC8EE002A84EDBA
:100D4000052AA069401CA061E369BCEEE20A10EE2E
:100D5000101A1944E161B1F57A7F34D900EE100A16
:100D6000B7EE004A61EEA11AF8EE402A1A4984EE65
:100D7000220A41EEC00A63EE031A01EEC01A63EEC6
:100D8000A31A60EE800A01EEC02A21EE001A10EECE
:100D9000900A884222EE000AA2DA11EE100A884276
:100DA0009EDA10EE100A88429ADA94F82000FF28A2
:100DB00002D2401C84F820002046BDEC028BBDE826
:100DC000704004F07FBBBDEC028B70BD0AE81C4193
:100DD000DD0C7B3F00007A4413AC203BF0B589B0BA
:100DE0000C460646154624216846FFF74AFB06F1E5
:100DF000100080210746FFF744FB307B08348DF854
:100E0000000007CC01AB83E8070007CC04AB83E804
:100E1000070014ED070A0D488DED070A3A46C16830
:100E20000891617A8DF80110406969460AF012FE56
:100E3000041E08DD80223946281DFFF709FB2868BB
:100E400040F00100286009B02046F0BDE8390020DC
:100E500030B589B00D46044624216846FFF711FBE2
:100E6000012269462046089503F0EEFD04F59C70CA
:100E700016F00DFB204602F079FAD4F8D804401C95
:100E8000C4F8D80409B030BDF0B50D490D4E0022AC
:100E90000C68002102EB800504EB820301EB850C5A
:100EA0005F5C16F80CC087EA0C075F54491CC9B296
:100EB0000429F3D3521CD2B2042AEAD3F0BD0000B5
:100EC000B0030020E036002000228B5C8354521CCB
:100ED000D2B2102AF9D3704730B52DED108BAFB0D8
:100EE00005462868142802D0642879D154E105F118
:100EF000080494ED000AF7EE000AB4EE600AF1EE81
:100F000010FA73D194ED010AF7EE000AB4EE600A0C
:100F1000F1EE10FA58D194ED090A10EE101A0846B5
:100F2000FFF7BEFC41EC180B94ED080A10EE101A06
:100F30000846FFF7B5FC41EC190B94ED070A10EEDB
:100F4000101A0846FFF7ACFC41EC1A0B94ED060AA8
:100F500010EE101A0846FFF7A3FC41EC1B0B94EDB2
:100F6000050A10EE101A0846FFF79AFC41EC1C0B1C
:100F700094ED040A10EE101A0846FFF791FC41ECBC
:100F80001D0B8DED088B8DED069B8DED04AB8DED6E
:100F900002BB8DED00CB53EC1D2BC5A000F028FD4E
:100FA00094ED070AD24880ED000A94ED080A80ED1E
:100FB000010A94ED090A80ED020A642000F0EAFDBE
:100FC000642000F0EDFDDDE094ED020A10EE101A51
:100FD0000846FFF765FC41EC180B53EC182B01E0B9
:100FE00003E103E0C3A000F003FDCBE094ED000AB1
:100FF000F0EE000AB4EE600AF1EE10FAE3D194EDDF
:101000000F0A10EE101A0846FFF74AFC41EC180BC5
:1010100094ED0E0A10EE101A0846FFF741FC41EC61
:10102000190B94ED0D0A10EE101A0846FFF738FC64
:1010300041EC1A0B94ED0C0A10EE101A0846FFF75B
:101040002FFC41EC1B0B94ED0B0A10EE101A084616
:10105000FFF726FC41EC1C0B94ED0A0A10EE101A67
:101060000846FFF71DFC41EC1D0B94ED090A10EE3C
:10107000101A0846FFF714FC41EC1E0B94ED080A09
:1010800010EE101A0846FFF70BFC41EC1F0B94ED15
:10109000070A10EE101A0846FFF702FCCDE92C01F2
:1010A00094ED060A10EE101A0846FFF7F9FBCDE999
:1010B0002A0194ED050A10EE101A0846FFF7F0FB1E
:1010C000CDE9280194ED040A10EE101A0846FFF746
:1010D000E7FBCDE9260194ED030A10EE101A08464D
:1010E000FFF7DEFBCDE9240194ED020A10EE101AA1
:1010F0000846FFF7D5FBCDE9220194ED010A10EE79
:10110000101A0846FFF7CCFBCDE9200194ED000A48
:1011100010EE101A0846FFF7C3FBCDE91E018DED56
:101120001C8B8DED1A9B8DED18AB8DED16BB8DEDE7
:1011300014CB8DED12DB8DED10EB8DED0EFB9DEDE7
:101140002C0B8DED0C0B9DED2A0B8DED0A0B9DEDFF
:10115000280B8DED080B9DED260B8DED060B9DEDFF
:10116000240B8DED040B9DED220B8DED020B9DEDFF
:10117000200B8DED000B9DED1E0B53EC102B63A08F
:1011800000F036FC70A000F033FC00BF192014F012
:10119000A1F80128FAD085E0192014F09BF818BBBB
:1011A00095ED040A10EE101A0846FFF779FB41ECA2
:1011B000180B95ED030A10EE101A0846FFF770FBA6
:1011C00041EC190B95ED020A10EE101A0846FFF7D4
:1011D00067FB41EC1A0B8DED028B8DED009B53EC00
:1011E0001A2B60A000F004FC5CE095ED090A10EEFB
:1011F000101A0846FFF754FB41EC180B95ED080A4E
:1012000010EE101A0846FFF74BFB41EC190B95ED59
:10121000070A10EE101A0846FFF742FB41EC1A0BC2
:1012200095ED060A10EE101A0846FFF739FB41EC5F
:101230001B0B95ED050A10EE101A0846FFF730FB60
:1012400041EC1C0B95ED040A10EE101A0846FFF74E
:1012500027FB41EC1D0B95ED030A10EE101A084612
:10126000FFF71EFB41EC1E0B95ED020A10EE101A63
:101270000846FFF715FB41EC1F0B8DED0C8B8DED38
:101280000A9B8DED08AB8DED06BB8DED04CB8DED8E
:1012900002DB8DED00EB53EC1F2B3EA0296800F024
:1012A000A7FB00BF00BF2FB0BDEC108B30BD00000E
:1012B000535056206F6B3A206163635F62696173BC
:1012C0003D252E34662C20252E34662C20252E34E8
:1012D00066206779725F626961733D252E34662CE2
:1012E00020252E34662C20252E34660A00000000AE
:1012F000D4050020535056206661696C653A20720F
:101300006561736F6E3D252E31660A00535056207D
:101310006462673A20252E33662C20252E33662CF6
:1013200020252E33662C20252E33662C20252E33A7
:10133000662C20252E33662C20252E33662C202566
:101340002E33660A000000005072657373206B65CF
:1013500079203420746F20636F6E74696E75650D2B
:101360000A0000006F7269656E746174696F6E3A8D
:10137000207961773D252E33662C2070697463686F
:101380003D252E33662C20726F773D252E33660A5D
:10139000000000004944585B25645D3A20252E3347
:1013A000662C20252E33662C20252E33662C2025F6
:1013B0002E33662C20252E33662C20252E33662CCA
:1013C00020252E33662C20252E33660A00000000CF
:1013D0002DE9F041074600F01DF8064600240A4DAD
:1013E0000CE000BF696B04EB840001EB8000026934
:1013F0001AB10549384660319047641CA86B844295
:10140000F0D33046BDE8F0810801002070477047F6
:10141000002070472DE9F043ADF5057D044618F036
:10142000B1FA074688460220D4F8009018F04CFA2A
:10143000794D00283BD00126484618F08BFA002849
:1014400035D1B14682908390261D83AA82A90120BE
:1014500018F04EFA839808B9102083907EB12020AE
:1014600018F032FA08B1062002E0829808B9032089
:101470008290024642AB304683990BF09FFE42AB0E
:1014800066A102A8829A04F00FFB674A002338463F
:101490004146FEF776FF02A9CDE900104B462268CF
:1014A00062A0296A18F078FA286A401C2862042091
:1014B00018F000FA002846D1574E206804F11407AE
:1014C0004FF07E59603640B106F1200801283BD02C
:1014D00002286CD0072836D192E0201D296C05F037
:1014E00021FF3846296C05F01DFF201D05F16C0316
:1014F00007C883E807002169494518D194ED010A1E
:10150000D4ED050A30EE200A86ED060A94ED020AB3
:10151000D4ED060A30EE200A86ED070A94ED030AA0
:10152000D4ED070A30EE200A86ED080A04E0211DFA
:1015300078350EC985E80E00216A494566D194EDDB
:10154000090A86ED090A61E0201D296C05F0EAFE12
:101550003846296C05F0E6FE211D08F1080C0EC97D
:101560008CE80E0021694046494518D194ED010AE6
:10157000D4ED050A30EE200A86ED0D0A94ED020A3C
:10158000D4ED060A30EE200A86ED0E0A94ED030A29
:10159000D4ED070A30EE200A86ED0F0A36E0241D4E
:1015A00094E80E00C0E90512C8F81C302EE0201D9A
:1015B000696C05F0B7FE3846696C05F0B3FE211D75
:1015C00008F120090EC989E80E0004F1140108F1A0
:1015D00030090EC989E80E0094ED040A4046B5EEC4
:1015E000C00AF1EE10FA08DA14349FED190A94E8F3
:1015F0000E00C0E90812C8F8283086ED130A05E08D
:1016000094ED010ABDEEC00A86ED2A0A0DF5057DAE
:101610000020BDE8F0830000080100206466442A31
:10162000256428257329000040420F005441473D9E
:1016300043534920534E28256429535428256429AF
:10164000495428256429257354532825642900000A
:10165000000000002DE9F84F4FF00008C146474652
:1016600018F090F9494CC4E91401202001F060FA07
:10167000DFF81CA168B1D4E9140152460023FEF73B
:101680004FFE024643A0616918F086F96069401C6C
:101690006061082001F056FA10B10020BDE8F88F13
:1016A000002656E03948443050F82650A8680228F1
:1016B00001D0032830D1D5E90612D4E91430591AE3
:1016C000904129D3296E2846884728BBD4E91423A2
:1016D00028460CF023F80022D4E91431AF68804684
:1016E0001046022F02D0032F1AD010E02F6C012FCA
:1016F00002D0022F02D00AE02A6A02E02A6A686C4D
:1017000042434FF47A704243D017D2184841C5E99A
:101710000620C5E904310127A868012802D010E09D
:10172000EA68EEE7296E2846884750B9D4E91423C1
:1017300028460BF0F3FF8046D4E914010127C5E9E0
:101740000401B8F1000F03D0206A854200D1C146E0
:10175000761C20688642A5DB9FB1402001F0E8F9A5
:1017600078B1D4E9140152460023FEF7D9FD009068
:1017700043464A460DA0A16918F00EF9A069401C25
:10178000A061B9F1000089D1404687E740020020FE
:1017900040420F005441473D44474420534E2825C2
:1017A0006429545328256429000000005441473D12
:1017B0004447445F4F4B20534E2825642944545FCF
:1017C000412825642944545F4E2825642954532810
:1017D000256429001CB50748009007480190684619
:1017E00000F0CEF905A001F00DF907A001F00AF90B
:1017F00000201CBD61520000FD4E0000405F4072A1
:1018000062733D3130323400405F407268733D3264
:101810000000000010B5102001F08AF970B118F036
:10182000B1F8104A0023FEF77BFD0F4C02460FA0D3
:10183000E16918F0B1F8E069401CE061012001F0B5
:1018400081F960B9FFF706FF002808DD15F0FAFB03
:1018500028B1022001F076F908B900F0AAFB0020B7
:1018600010BD000040420F00400200205441473D9F
:10187000444D505220534E28256429545328256442
:101880002900000070B504460E4800F01FF82046FD
:1018900000F032F815F032FC0A4D00243C3D08E01F
:1018A000696B04EB840051F8201009B100208847CF
:1018B000641CA86B8442F3D3BDE87040024806F074
:1018C000E9B9000044010020DD38000008B50749EF
:1018D000016068460BF0F0FD0098016A04488847F3
:1018E000044900981C308860012008BDED380000D4
:1018F0009D72815B60030020084910B5086008A054
:101900000BF018FA002015F0C3F907A00BF012FA3B
:10191000BDE81040064806F071BB00000801002039
:10192000405F406861380000405F406861360000F9
:101930004579010010B5044638210E48FEF7A1FD97
:101940000C484CB12168016261680161A168416184
:10195000E168016021694160016909B906490161D5
:1019600006498160BDE8104010224FF448610448E8
:1019700018F06AB880360020ADDB0000D91F0100E6
:10198000A02100202DE9F04772B606F0F1FD0025F8
:10199000044610480CC82046294608F0D6FB0646E7
:1019A0000F463046394615F04FFA0B4B0CCB10EB77
:1019B000020841EB030962B64FF47A7300204146F6
:1019C000A1FB03CA09FB03A208FB00216046BDE896
:1019D000F0870000100000201800002010B5044619
:1019E000214602A004F036F8002010BD2573000047
:1019F0000FB438B5002405A80090FF210748009BCC
:101A0000049A04F065F80446002000900348FFF7AC
:101A1000E5FF204638BC5DF814FB000000160020EE
:101A20002DE9FF4F81B0054617461E4600240020D1
:101A3000224908700120FBB2E9B202AA00902048B6
:101A400013F00CF9804607E0601C84B200BF42F23C
:101A50001070844200DD03E0184800780028F3D0BD
:101A600000BFB8F1000F03D0404605B0BDE8F08FCD
:101A7000002012490870DFF8489005F0FF0A0E9820
:101A800000F0FF0B002000905B463246514609F102
:101A9000040014F04BFD00900098804607E0601CA5
:101AA00084B200BF42F21070844200DD03E00348BC
:101AB00000780028F3D000BF4046D6E72000002081
:101AC000000000202DE9FF4786B0054614461E465B
:101AD000DDE9127A4FF00008142101A8FEF7D1FCCD
:101AE000224607A901A8FEF7B3FC01A908193A4646
:101AF0003146FEF7ADFC00200F4908700090381900
:101B0000C3B2E9B201AA0D4813F0A8F8814609E072
:101B100008F101001FFA80F800BF42F21070804502
:101B200000DD03E0044800780028F1D000BF4846FB
:101B30000AB0BDE8F087000020000020000000206F
:101B40002DE9F04707464FF47A70B7FBF0F404B97B
:101B50000124254605B90FE000BF4FF47A7606B997
:101B600006E0DFF818904FEA86184046C84700BFE5
:101B7000681E051EF1D100BFBDE8F08751B8010015
:101B800020B10349D0E90020C1E9162001207047A7
:101B900008010020014A002100F008B85579010031
:101BA000014A012100F002B8557901002DE9FE4FEC
:101BB00091460E4682464FF0000817F0E3FE0446B9
:101BC0000F46012017F080FE4E4D78B14E4A00239B
:101BD00020463946FEF7D5FB0090334652464BA0CF
:101BE000E96817F0D9FEE868401CE86017F0BCFE11
:101BF00000286CD002AA002150460BF02BFF0746AC
:101C0000401C4FF0010414D038460BF0AFFFB04237
:101C10005DD0686A04FA07F416B104436C6201E00F
:101C2000A04368620298D8B33146384615F094FF55
:101C30004DE001AA002150460BF0D2FE0746401CA1
:101C400012D038460BF086FFB04240D0A86A04FAA2
:101C500007F416B10443AC6201E0A043A862314628
:101C6000019815F0C1FF32E001AA002150460BF0A7
:101C70002BFF0546401C28D028460BF083FFB042BE
:101C800025D02B48402D00DB083004FA05F446B17E
:101C9000D0E90021224341EAE471C0E9002108E0D3
:101CA00012E0D0E90012E343194002EAE372C0E90E
:101CB00000123146019815F097FFB9F1000F06D0D8
:101CC000314650464A46904701E04FF0FF38002128
:101CD000174D184C0846103500EB400204EB820308
:101CE0005A6855F82220002A01DD9A681143401CE9
:101CF0000A28F1D303486030C0F8BC104046BDE864
:101D0000FE8F00000801002040420F005441473D73
:101D1000534520534E2825642953494428256429D6
:101D20004F4E2825642954532825642900000000BB
:101D3000202E0020FCB901000022AFF3008000F04B
:101D400001B800002DE9F74F8CB00C46834617F020
:101D500019FE80468946012017F0B6FDDFF81CA267
:101D600078B10E98CDF80080CDE9019023465A460F
:101D700055460020DAF8041014F0F0FE6868401CA4
:101D8000686000252E4617F0EFFD002873D05846F6
:101D9000BBF16F0F67D008DC78B10A283BD065280B
:101DA0002FD0BBF16E0F25D159E070285ED0782876
:101DB0003ED0BBF1C90F1DD15EE0206801285AD189
:101DC0006F49206908606F49606A08606E484FF08B
:101DD00000010078000701D56C4800E0002005F004
:101DE000A7FFE069411C06D000231A464FEA030111
:101DF00005F0A4FF78E04FF0FF3003461A46114685
:101E0000F6E72068012836D16168CAF84010A16859
:101E1000CAF8441068E0206801282CD15C49606849
:101E200008605C49A06808605B49E06808605BE0A6
:101E3000206801281FD1684617F0ECFD009860600B
:101E40000398A0600998E0600298206101986061A1
:101E50000698A0610798E0610A98206243E0204656
:101E600005F0DCFF40E02146012001E02146022090
:101E700005F0E8FF37E07CE02068012879D13F4D8C
:101E800060684835C8B1012802D0022815D02AE080
:101E9000286848B3696839B3404A00255040A060BB
:101EA0003F484140C4F80C10FEF7C0FA04EB85012E
:101EB0006D1C08610C2DF7DB15E0A068A0B1E0688F
:101EC00090B1002001AB02AA014600900BF0C8FAC5
:101ED0000198012808D13349A06848402860324958
:101EE000E0684840686001262146584606F000FA3E
:101EF000012800D101265846214614F037FF012859
:101F0000054600D10126002710E000BFDAF83400B2
:101F100007EB870100EB8100426832B12146584649
:101F200090470546012800D101267F1CDAF83810B9
:101F30008F42EBD31148583002682AB121465846E7
:101F400090470546012800D09EB1012017F0BCFC47
:101F500078B10E98CDF80080CDE9019023465A461D
:101F600054460120DAF8081014F0F8FDA068401C6F
:101F7000A0600FB02846BDE8F08F000008010020E7
:101F80002803002038030020DC02002055740000E4
:101F90002C0300203003002034030020EA1C51BA37
:101FA000AC2B6154DCAB16DF1F65EF870122FFF716
:101FB000C6BE00207047000070B50446074900F017
:101FC00011F8002C08DD064B4FF47A75D3E9141292
:101FD000C4FB0512C3E9141270BD00005970010062
:101FE000080100202DE9F04798B08946074617F010
:101FF000C9FC054688464FF0000A082017F064FC2B
:10200000324C70B1324A002328464146FEF788F927
:1020100003463A462FA0616917F0BEFC6069401C78
:1020200060612A4E60363560C6E90187354628462C
:10203000C6F8D07014F03CFE284606F009F82D488A
:102040000078C00702D0284605F0A4FE0BF064FC1F
:10205000A269012A05D180F063020A4331D0084306
:102060002FD00120A061D6F8C040E4B116A90FF02E
:10207000EFFEC0B158216846FEF703FA16980090AB
:10208000B7EE000A8DED020AE00701D08DED030ADC
:10209000A00701D58DED040A600701D58DED050A75
:1020A000684605F06BF915F073FCB9F1000F04D028
:1020B0000648494660308847824618B05046BDE819
:1020C000F087002017F056FCF7E700000801002019
:1020D00040420F005441473D4D50523220534E284C
:1020E0002564294449542825642954532825642902
:1020F00000000000DC02002070B50D462DED068BBF
:102100000446032190ED239A9FED36AA104609F06C
:1021100059F9DFED350A30EE600A09F0ABFB94F8AF
:102120007000B0EE408AC00744D018EE100A94ED5B
:10213000260AF7EE009AB0F17E5F24DA032205F159
:10214000F00105F1E40009F05DFA79EEC08AF4EEE1
:10215000C98AF1EE10FA02DDB0EE49AA01E0B0EE54
:1021600068AA94F8700094ED270A80070BD518EE42
:10217000100A1E49884206DAF4EEC98AF1EE10FA16
:1021800001DD94ED260AC9EE890A94ED241A60EE69
:10219000800A28EE090A0AEE410A20EE800A03F0BE
:1021A000ABFF94F8000301280CD9D4ED250A20EEEA
:1021B000800A07E0B0EE480A03F09EFFD4ED2A0A39
:1021C00020EE200A0A4910EE100A884201DD9FED38
:1021D000090AD4ED1E0A20EE800A85ED3F0ABDEC07
:1021E000068B70BD000000000AE81C41CDCCCC3D40
:1021F000C2BDF07CC2BDF07C2DE9F0418CB04FF047
:102200000308012601F1F0040F4601F1E402CDE9D3
:102210000086054600F130014346384609F0E4F8EF
:10222000CDE90086032305AA05F12401384609F00B
:10223000DBF805AD204602AE08AA294609F0B7F939
:10224000324608A9284609F0B2F9032102A809F08C
:10225000B9F810EE100A0949884203DA01200CB0DF
:10226000BDE8F081032102A809F03AF902AB93E836
:10227000070084E807000020F1E700000AD7233CAC
:1022800070B504462DED028B0D4690F8006390ED7D
:10229000218A90F87000C0071CD0032205F1F001DC
:1022A00005F1E40009F0AEF9F7EE000A30EEC00ADD
:1022B000B4EEC80AF1EE10FA01DDB0EE480A80EE85
:1022C000881AD4ED220A61EE200A20EEC00A03F03B
:1022D00013FF01E094ED2B0A002E08DD16FB06F03B
:1022E000704300EE900AF8EEE00A20EE800A0849FA
:1022F00010EE100A884201DD9FED060AD4ED200A97
:1023000020EE800A85ED3F0ABDEC028B70BD000017
:10231000C2BDF07CC2BDF07C70B50D4604462DED0B
:10232000028B0321104609F04DF804F54170B0EE20
:10233000408AC16A00EB810181ED000AD0E90A21DF
:10234000521E914201D1002100E0491C9FED270A55
:10235000C1620022F0EE400A816A08E000EB8203CD
:10236000521C93ED001A01EE010A70EE810A8A42B6
:10237000F4DB01EE101AF8EEC11A80EEA11A00EE9D
:10238000901AF8EEE01AC0EE210AB0EE480A41EECB
:10239000410AC5ED000A0FF0DBFD0100144807D02B
:1023A0000068008880041BD10023122211A114E0D0
:1023B00094ED280AB4EEC80AF1EE10FA06DC94EDAA
:1023C000290AB4EEC80AF1EE10FA0DD200680088AE
:1023D000800405D10023122209A1122005F078FC07
:1023E0000120BDEC028B70BD0020FAE70000000068
:1023F000C8040020522F4125643A202F7A000000A3
:10240000522F4125643A206E2F00000010B5094973
:1024100081640949C164094901650949416509495E
:1024200081650949C1650949016609A000F0EAFA18
:10243000002010BDED25000015F8000099ED00000A
:1024400029EE0000B1ED00007DEB00008DDD000005
:10245000405F406464313D310000000010B509491F
:1024600081640949C164094901650949416509490E
:1024700081650949C1650949016609A000F0C2FAF0
:10248000002010BDF1250000B9F800009DED00000E
:1024900005EF0000C9ED0000A5EB0000F9DE00002B
:1024A000405F406464323D310000000010B50949CE
:1024B00081640949C16409490165094941650949BE
:1024C00081650949C1650949016609A000F09AFAC8
:1024D000002010BDF525000059F90000A1ED000015
:1024E00045F00000D3ED0000CDEB000065E00000FA
:1024F000405F406464333D310000000010B509497D
:1025000081640949C164094901650949416509496D
:1025100081650949C1650949016609A000F072FA9F
:10252000002010BDF9250000E5F90000A5ED000030
:102530008DF00000E1ED0000EDEB0000C5E00000D3
:10254000405F406464363D310000000010B5094929
:1025500081640949C164094901650949416509491D
:1025600081650949C1650949016609A000F04AFA77
:10257000002010BDFD25000071FA0000A9ED00004B
:10258000C9F10000F9ED000015EC000015E20000B3
:10259000405F406464353D310000000010B50949DA
:1025A00081640949C16409490165094941650949CD
:1025B00081650949C1650949016609A000F022FA4F
:1025C000002010BD0126000001FB0000ADED000061
:1025D00019F3000011EE00003DEC000011E40000D2
:1025E000405F406464343D310000000000207047CB
:1025F000002070470020704700207047002070477F
:1026000000207047F0B5044690F824000027B9B0C8
:102610000D46800700D50127022000F089FA924E6E
:10262000E8B3D6E91401914A0023FDF779FED5ED10
:10263000041AB2EE040A95ED051AD5ED070A61EE0B
:10264000801A21EE001A60EE800AFDEEE11ABDEE5E
:10265000C11AFDEEE00ACDED0A1A8DED0B1ACDED93
:102660000C0A0D90D5ED030A94ED221AB5F90A1063
:1026700020EE800ADFED7E0AB5F90800CDE90601FB
:1026800021EE201ABDEEC00ABDEEC11A8DED081A6A
:102690008DED090AB5F9060094ED210A00E01AE073
:1026A00020EE200AB5F90420B5F90210CDE9021296
:1026B000BDEEC00A3A468DED040A0590B5F900104A
:1026C0006068CDE90001236B6A48316917F064F94D
:1026D0003069401C3061002F7DD12079C00733D094
:1026E00094F83000C0072FD098210EA8FDF7C9FE3E
:1026F000D5E90001CDE9370137A8D4F8801004F0FE
:10270000E7FD94ED210A032234A937A806F006F963
:10271000002034AB0E9093E807000FAB83E807006E
:10272000207900070DD594F83000000709D5A86975
:1027300038B1B7EE000A8DED160A95ED070A8DED5A
:10274000170A0EA8FEF744FE2079800724D594F8D6
:102750003000800720D598210EA8FDF792FED5F80D
:10276000060037906889ADF8E00037A8D4F88010EB
:1027700004F0AEFD94ED220A032234A937A806F036
:10278000CDF8012034AB0E9093E807000FAB83E83F
:1027900007000EA8FEF71CFE2079400746D594F8E6
:1027A0003000400742D598210EA8FDF76AFE0C358F
:1027B00034AB95E8070083E80700A06F34AA01282E
:1027C00025DD182823D82C4900EB400034AF4318EE
:1027D00097E8230000E029E08DE8230000206D4603
:1027E000DB1E1956002907DA494205EB810111ED7C
:1027F000010AB1EE400A03E005EB810111ED010A87
:1028000002EB8001401C81ED000A0328E9DB022075
:10281000BFEE000A0E9034AB8DED120A93E807006C
:1028200013AB83E807000EA8FEF7D2FD14F00AFCF4
:10283000B0B9306A844213D12079C00710D094F81F
:102840003000C0070CD0D6E9142320460AF066FFFA
:102850000246042000F076F910B91046FFF7ACFBF1
:1028600039B00020F0BD00004002002040420F00BF
:1028700000247449F0E90100D4BA01007CB5044693
:1028800090F824000025800700D50125082000F0DD
:102890004FF990B1164E154A0023D6E91401FDF701
:1028A0003FFD6168CDE900102A46236C11A0F16854
:1028B00017F072F8F068401CF060206C022812D10A
:1028C0008DB92079800702D50120FEF79FFD207980
:1028D000C00702D00020FEF799FD2079400702D5FD
:1028E0000220FEF793FD00207CBD000040420F0057
:1028F000400200205441473D4453464520534E2852
:1029000025642941582825642947444D28256429F0
:102910004555522825642954532825642900000070
:10292000FEB5044690F824000026800700D5012655
:10293000082000F0FDF8244D98B1D5E91401234A90
:102940000023FDF7EDFC6268216A0092CDE90110D9
:102950003246236C1EA0A96817F01EF8A868401C18
:10296000A860206C02282DD166BB207980070BD58A
:10297000206A4FF47A714843C117CDE90001D5E9C7
:1029800014230120FEF744FD2079C0070BD0206AF4
:102990004FF47A714843C117CDE90001D5E91423FA
:1029A0000020FEF735FD207940070BD5206A4FF453
:1029B0007A714843C117CDE90001D5E914230220FB
:1029C000FEF726FD0020FEBD4002002040420F0021
:1029D0005441473D4453465320534E2825642941D2
:1029E000582825642947444D2825642945555228EF
:1029F00025642944545528256429545328256429DD
:102A0000000000000146012003F0D2B810B516F016
:102A1000B9FF4FF47A720023FDF782FC10BD00006D
:102A20000149016006207047F0BF01002DE9FC4715
:102A30008046DDE90A45994616460F46042000F017
:102A400077F838B133463A4641460DA0CDE9004506
:102A500016F0A2FF4B46324639464046CDE90045C6
:102A600017F038F80546042000F062F820B1002283
:102A7000214648460AF0EAF82846BDE8FC870000EF
:102A8000444D4C3A2069326352656164206164644C
:102A9000723D30782558207265673D307825582082
:102AA000726567533D25642072533D256420623D65
:102AB000256400002DE9FC478146DDE90A451E46F4
:102AC00017468846042000F033F860B13B46424682
:102AD00049460AA0CDE9004516F05EFF00222146D6
:102AE00030460AF0B3F833463A4641464846CDE907
:102AF000004516F0FFFFBDE8FC870000444D4C3A4E
:102B000020693263577269746520616464723D3074
:102B1000782558207265673D3078255820726567A2
:102B2000533D25642077533D256420623D25640094
:102B30000349896B014201D0012070470020704792
:102B4000400200200349C96B014201D001207047B7
:102B5000002070474002002010B504468020FFF797
:102B6000E7FF18B1214604A016F016FF2046BDE885
:102B7000104017F031B80000444D4C3A2075536CAA
:102B80006565702025640000F0B504468DB00E46E2
:102B90001546104618F0D4F900287CD13146684615
:102BA00018F07FFB6A46214606A818F06EFB6946BE
:102BB000084618F076FB31462A46084618F065FBB1
:102BC0002946084618F06DFB2146344B2A46084634
:102BD00018F00CFA2A461146304B084618F006FA4F
:102BE0002A462E4B2146104618F067FB21462A46FE
:102BF000084618F04AFB2246284B1146284618F092
:102C0000F5F92146254B2A46084618F0EFF9002130
:102C1000204618F0ACFC08430DD021461F4A084658
:102C200018F03CF90746204618F0D4FB626942EAE6
:102C3000C772626102E0204618F0CCFB21462846AC
:102C400018F02FFB2946154B06AA084618F035FB4D
:102C50002946124B06AA084618F02FFB06A90F4B6F
:102C60002A46084618F029FB214606AA084618F00D
:102C70000CFB6A46094B2146104618F01EFB2946FC
:102C8000204618F0C3FB3146284618F0BFFB6946C2
:102C9000304618F0BBFB0DB0F0BD0000C0030020B3
:102CA0002DE9F04F4FF000082DED068B99B08946C5
:102CB000044690F87351C3464646C246302102A8E6
:102CC000FDF7DFFBDFED738A00279FED73AB00BFDD
:102CD000D4F86C01FDF7E4FD53EC1A2BFDF7C2FCB0
:102CE00041EC190B09EB870090ED000A08F0C2FDDA
:102CF00010EE100AFDF7D4FD53EC192BFDF7FCFD87
:102D000001D84FF001087F1C032FE1DB94F870011C
:102D100010B994F872516D1C00270DF108090020BC
:102D200014E000BF00EBC00104EBC10191F8752174
:102D300012B1B8F1000F2BD001EB8701821B91ED8E
:102D4000650A09EB820181ED000A401CA842E9DB1B
:102D5000A81B81B202A800F00DF90FA800EB8700B4
:102D600000267F1C80ED000A032FD8DBDDED110A61
:102D70009DED100AF4EEC00AF1EE10FA0BDB9DEDAA
:102D80000F1AF4EEC10AF1EE10FA04DB022711E08B
:102D9000761CB246D9E7B4EEE00AF1EE10FA08DB91
:102DA000DDED0F0AB4EEE00AF1EE10FA01DB0127C7
:102DB00000E0002700204A461CE000BF94F8721192
:102DC000091A294491FBF5F305FB131101EBC1012D
:102DD00004EBC10191F8753113B1B8F1000F1CD0AB
:102DE00001EB870191ED650A811B02EB810181ED09
:102DF000000A401CA842E1DBA5EB0A06F0070ED052
:102E0000721E002102A808F031FFB1B202A808F03A
:102E100039FDB0EE408A002633E0761CE9E7B21EA9
:102E2000002102A808F022FF761EEEE794F8721146
:102E3000701C084490FBF5F105FB110909EBC90072
:102E400004EBC00A0AEB8700019090ED650A38EEAA
:102E5000400A08F00FFDB4EEE80AF1EE10FA0FD8C0
:102E60009AF87511A8F10100014209D1019890ED7D
:102E7000650A38EE400A08F0FDFCF0EE408ACB46C9
:102E8000761CAE42D2DB19B05846BDEC068BBDE8CD
:102E9000F08F0000FFFF7F7F399D52A246DF913FF8
:102EA0002DE9FC4700260020009001904FF4807728
:102EB0000125002410E0384612F096FA40B100BF18
:102EC00025480068284018B1384612F07FFA2E4392
:102ED0006D00381D87B2641C082CECD34FF4BE7013
:102EE00012F082FA50B14FF4BE7012F06FFA46F051
:102EF00000466A460221002012F040F9F0B210B3F9
:102F0000012500241DE005EA0600C0B100BF1348FA
:102F100050F82400C0F30520814600BF0F4850F848
:102F20002400C0F301408246204607F053F9804652
:102F3000B8F1000F02D051464846C04700BF6D00AF
:102F4000641C082CDFD306F0004010B1684613F073
:102F500091FFBDE8FC87000004630040106500405D
:102F600001460020022901D111F09EBB70470020CC
:102F7000704700009FED120A0029F0EE400A1ED0B3
:102F80000C291CD8002208E000EB8203521C93EDB0
:102F9000001A41EE010A31EE000A8A42F4DB01EE2A
:102FA000101AF8EE411A80EE211A00EE101AF8EE0F
:102FB000401A80EEA10A01EE410A09F0B9BB704740
:102FC0000000000030B5344D91B00C460DA9E86802
:102FD0000AF0ADF96A4601210DA801F0B1F9231DEF
:102FE000224604A9E8680AF08FF9DDED000A9FED9A
:102FF0002B0A60EE800AFDEEE00AC4ED020ADDED68
:10300000010A60EE800AFDEEE00AC4ED030ADDED80
:10301000020A60EE800AFDEEE00AC4ED040ADDED6E
:10302000030A20EE800ABDEEC00A84ED050ADDED3C
:10303000040A9FED1B0A60EE800AFDEEE00AC4ED73
:10304000060ADDED050A60EE800AFDEEE00AC4ED39
:10305000070ADDED060A60EE800AFDEEE00AC4ED27
:10306000080ADDED080A60EE800AFDEEE00AC4ED14
:10307000090ADDED090A60EE800AFDEEE00AC4ED02
:103080000A0ADDED0C0A20EE800ABDEEC00A84EDCE
:103090000B0A11B030BD0000E839002020BCBE4C46
:1030A000CA1B0E5AF0B504462DED088BB0EE408ACF
:1030B00083B016460F46D0ED130A90ED111A002585
:1030C00080EE810A10EE100AFDF7EAFB9FED9ABB35
:1030D00053EC1B2BFDF7C6FAFDF726FC00EE100A99
:1030E0000321384620EE009A08F06CF910EE100A21
:1030F000B0F17C5F07DD204602F0D0F9681E03B016
:10310000BDEC088BF0BDDFED8EAA97E807008DE8D7
:103110000700D4ED110AF7EE009A032289EEA00A07
:103120000121684608F096F99DED020A08F0CCFDF1
:1031300000EE100AF8EEC08A9DED010A08F0C4FD09
:1031400000EE100AB8EEC0AA9DED000A08F0BCFD22
:1031500000EE100AF0EE481AB0EE681AB8EEC00A97
:10316000F0EE4A0A204602F0D5F9204616F03AFB66
:1031700000287DD0606B00287BD000EE100AB8EEEE
:10318000400A89EE808A94ED000A20EE080A08F0D1
:103190009BFD00EE100AD4ED110AB8EEC00A20EE35
:1031A000200A84ED060A94ED010A20EE080A08F0D0
:1031B0008BFD00EE100AD4ED110AB8EEC00A20EE25
:1031C000200A84ED070A94ED020A20EE080A08F0AE
:1031D0007BFD00EE100AD4ED110AB8EEC00A20EE15
:1031E000200A84ED080A94ED000A20EE001A94EDFE
:1031F000030A01EE480A60EE088AC4ED098A94EDDC
:10320000010A20EE001A94ED040A01EE480A20EEAD
:1032100008AA84ED0AAA94ED020A20EE001A94EDA1
:10322000050A01EE480A20EE088A84ED0B8A94ED27
:10323000141A81EE200A10EE100AFDF731FB53EC50
:103240001B2BFDF70FFAFDF76FFB00EE100A3D4850
:1032500020EE000A79EE000A39EE400AF4EEC08A48
:10326000F1EE10FA03D918EE901A81421CDA01E04F
:103270005FE014E0B4EEC0AAF1EE10FA03D91AEE42
:10328000101A814210DAB4EEC08AF1EE10FA03D9B6
:1032900018EE101A814207DAC6ED009A45E0204682
:1032A00002F0FCF828462AE7F4EEE08AF1EE10FA84
:1032B0000CDDB4EEE0AAF1EE10FA07DDB4EEE08A20
:1032C000F1EE10FA02DDC6ED00AA2FE030EEC00AE2
:1032D000B5EEC00AF1EE10FADEDD89EE80AA78EED6
:1032E000C90AB6EE008AB0EE480A00EECA0A15F026
:1032F0001DFFF0EE408A94ED0A0A70EE490AB0EE26
:10330000480A00EECA0A15F011FF68EE808A94EDB3
:103310000B0A30EE490A00EE4A8AB0EE480A15F070
:1033200005FF28EE800A86ED000A0125204602F0FE
:10333000B5F884F83050B5E7399D52A246DF913F89
:1033400000000000BD37863510B504462021001D61
:10335000FDF797F894F87000800706D4207DB7EE4B
:10336000000A401C207584ED070A10BD30B5C82145
:10337000A0F8241100210C240B46103001EB41026F
:1033800000EB021500EBC102491C42F8C05F0329A3
:103390009480D380F2DB00F1900140F8D81F848044
:1033A000C38030BD10B50A20FDF76EFD5FF0090443
:1033B00000F0FCF900F018FA2046FDF765FD00F07A
:1033C0000DF8641E14F0FF04F2D100F0EFF900F0E4
:1033D0000BFABDE810400020FDF756BD2DE9F05F67
:1033E000DFF8C4B3002400BFDBF8000010F824604D
:1033F00000EB840090F8019090F802A090F8038010
:10340000304618F0F7F918F0F5F918F0F3F918F05C
:10341000F1F9404618F0EEF9504618F0EBF948463D
:1034200018F0E8F918F0E6F9484618F0E3F918F052
:10343000E1F918F0DFF918F0DDF9404618F0DAF993
:1034400018F0D8F918F0D6F918F0D4F9404618F069
:10345000D1F918F0CFF9504618F0CCF918F0CAF9A4
:1034600018F0C8F918F0C6F9304618F0C3F9054647
:10347000304618F0BFF918F0BDF94540304618F055
:10348000B9F918F0B7F918F0B5F94540484618F001
:10349000B1F980EA0907484618F0ACF918F0AAF922
:1034A00018F0A8F947407D40504618F0A3F918F0ED
:1034B000A1F980EA0A07504618F09CF918F09AF929
:1034C00018F098F947407D40404618F093F918F0FD
:1034D00091F918F08FF980EA0801DBF800004D40FF
:1034E00000F82450304618F085F9404618F082F96B
:1034F000504618F07FF918F07DF9484618F07AF92F
:1035000018F078F918F076F918F074F9304618F0D8
:1035100071F918F06FF918F06DF918F06BF9304681
:1035200018F068F918F066F9404618F063F918F0D9
:1035300061F918F05FF918F05DF9504618F05AF982
:1035400018F058F918F056F918F054F9304618F0F8
:1035500051F918F04FF918F04DF980EA0605484680
:1035600018F048F90746484618F044F918F042F9AF
:103570004740484618F03EF918F03CF918F03AF97F
:1035800047407D40504618F035F980EA0A0750461A
:1035900018F030F918F02EF918F02CF947406F4068
:1035A000404618F027F918F025F90546404685EA07
:1035B000080518F01FF918F01DF918F01BF945401F
:1035C000DBF800006F4000EB84004770304618F0D5
:1035D00011F9404618F00EF918F00CF9504618F0A1
:1035E00009F918F007F918F005F918F003F9484639
:1035F00018F000F9304618F0FDF818F0FBF818F054
:10360000F9F818F0F7F8404618F0F4F818F0F2F866
:1036100018F0F0F818F0EEF8484618F0EBF818F04B
:10362000E9F818F0E7F818F0E5F8484618F0E2F87D
:1036300018F0E0F8304618F0DDF818F0DBF880EA12
:103640000605304618F0D6F818F0D4F818F0D2F87D
:103650004540484618F0CEF818F0CCF818F0CAF8F3
:1036600080EA09004540504618F0C4F80746504625
:1036700018F0C0F818F0BEF84740504618F0BAF8F5
:1036800018F0B8F818F0B6F847407D40404618F0FA
:10369000B1F80746404687EA080718F0ABF818F07B
:1036A000A9F818F0A7F84740DBF800007D4000EBD0
:1036B00084008570304618F09DF818F09BF840465D
:1036C00018F098F818F096F818F094F818F092F8A6
:1036D000504618F08FF8484618F08CF8304618F02D
:1036E00089F818F087F818F085F818F083F8504634
:1036F00018F080F818F07EF818F07CF818F07AF8D6
:10370000504618F077F818F075F8484618F072F837
:1037100018F070F818F06EF818F06CF8304618F0E1
:1037200069F880EA0605304618F064F818F062F887
:1037300018F060F84540484618F05CF818F05AF860
:1037400080EA0906484618F055F818F053F818F0C2
:1037500051F846407540504618F04CF818F04AF8B9
:1037600018F048F880EA0A004540404618F042F850
:103770000646404618F03EF818F03CF846404046F1
:1037800018F038F818F036F818F034F84640DBF83E
:103790000000754000EB8400641CC570042CFFF62B
:1037A00023AEBDE8F09F0000B00300200D48006884
:1037B000417B427A4273427942724278427141704F
:1037C0008178827A827081728179827B8271817341
:1037D000C178C279C270C27AC271C27BC272C1732F
:1037E00070470000B003002030B50949094C0020A3
:1037F0000B68002103EB8102491C155CC9B2042946
:10380000655D1554F6D3401CC0B20428F1D330BD19
:10381000B003002020C1010078B52D492D4A0020B9
:10382000496800BF11F8203002F8203001EB800316
:1038300002EB80045D7865709D78A570DB78401C94
:10384000E3700428EED33FE0002183006D461B1F88
:103850005C18145D6C54491C0429F9D381071AD1F2
:103860001D4E9DF801309DF802509DF803409DF8D3
:103870000010F35C755D8DF80150345D8DF80240E9
:10388000715C8DF8031006F5007101EB9001097869
:103890004B408DF8003002EB80019DF8004011F89C
:1038A000103D634002F820304B789DF801406340A2
:1038B0004B748B789DF8024063408B74CB789DF8F5
:1038C00003406340CB74401C2C28BDD378BD00005E
:1038D000B0030020E036002020C0010030B4024CCC
:1038E000E46BA44630BC6047080100202DE9F04796
:1038F0006E4C0D468146D4E904011F4692460843AA
:1039000003D101200021C4E90401FCF78FFD9FEDE4
:10391000680A616800264FF00108F9B197B100BF4D
:10392000D7EC020A70EE810A97ED021A30EE811A86
:1039300000EE900AF8EEE00A41EE000AFDEEE00A21
:1039400010EE900A642290FBF2F302FB13000028B1
:1039500000DA40424FF0FF3241B10DE0002FDFD1DD
:1039600063200021C4E904012E6072E0142190FB61
:10397000F1F301FB130141B3C4F8048021684FF057
:103980007E57B94216D1322190FBF1F301FB1300AF
:1039900000EE900AF8EEE00A80EE801AF7EE000AD8
:1039A00031EE200A10EE100A84ED000AB84201DA66
:1039B000C4ED000A3F4B05274946002053F830C0AC
:1039C0008C4508D1411C09D018E063200021C4E9CE
:1039D00004012A603DE0401CB842EFD30527DFF820
:1039E000D4C000204FEA00010CEBC1035B68934296
:1039F00001D21A460846491CB942F5D32D4944F66E
:103A0000206201EBC0009245C0F8009002DC4168E2
:103A1000143105E04FF47A729AFBF2F142681144D6
:103A2000416008464EF66021B0FBF1F0A168032228
:103A30000B68012B02D0022B0BD119E094ED000A88
:103A4000F2EE0E0A18E001200021C4E90401C5F8D5
:103A50000080A068184A0168914205D10121002226
:103A6000C4E90412C5F800800068032815D019E0E5
:103A700094ED000ADFED110A60EE200A00EE100A54
:103A8000B8EEC00AF4EEC00AF1EE10FADBD86320FB
:103A90000023C4E904032E600A6063200021C4E906
:103AA00004012E602868BDE8F08700006003002054
:103AB0000000C842B8360020815B9D720000B4440B
:103AC0002DE9F04F0F4681469DB01D4614464FF438
:103AD000B8711046FCF7D5FC05F1600021461A903C
:103AE00000F0D8F997E80700F03407C4A4F10C00FF
:103AF0000321FC3C109007F0F3FC03264FF0010873
:103B000004F1E40BB9F1000F63D021462846FEF71B
:103B100073FB00287ED13A4621462846FEF7B0FBCB
:103B200004F124015846019117F0E4F83C35B246FF
:103B3000032304AA29460096019807F00BFC04F120
:103B40004800242204A907460390FCF781FC94ED69
:103B50003F0A032104A810F0C5FB3A46032304A939
:103B60001046009607F016FC04F16C0739460398DE
:103B700010F0A2FC032211AB1146019807F0FEFCE5
:103B80000096032304AA11A92846019607F02CFCED
:103B9000009604F190020323394604A801960F927F
:103BA00007F022FC4746032304AA5946CDF80080BB
:103BB000109807F0CBFCCDE9006704F1D80203238D
:103BC000164604A90F9807F00FFCB9F1000F0FD0AB
:103BD00029E0CDE90068204605F1240103235A4677
:103BE00007F002FC3A4621462846FEF785FA97E799
:103BF00003225946304607F005FDE43404AB94E84F
:103C0000070083E807000122032104A8E43C07F031
:103C100021FC00E069E03246032304A91046CDF8F8
:103C2000008007F093FC1A9E04F5827704F58A79E8
:103C300096E80E1087E80E10D4E93612D4F8E000AA
:103C40000591CDE9062001220321B6EE000A05A860
:103C500007F000FC494605A800F0F0FD3246494651
:103C6000384600F0F7FA304600F0D4FA84F80081C4
:103C7000CDF800A05746032304AA03990F9807F034
:103C800069FB04F1B4020323904604A92846009777
:103C900007F05CFC94F80001E0B104F59276032192
:103CA000B7EE000A304604F5A47410F01BFB214661
:103CB000584617F01FF83246032321461046009756
:103CC00007F068FB03232A4641463046009707F079
:103CD00041FB04E0242241462846FCF7B9FB1DB015
:103CE0002846BDE8F04F09F0C5BA1DB0BDE8F08F19
:103CF00010B54FF4807010F016FF80B14FF4807053
:103D000010F01AFF012010F021FF0D48407930B962
:103D100001200B49487108460168002088474FF48C
:103D2000827010F000FF50B14FF4827010F004FF69
:103D3000022010F00BFF024801680120884710BDE7
:103D4000540000202DE9F041DFED250A04462DED59
:103D5000028B01F10C0891ED090AE43084B020EEE9
:103D6000208A8C210546FCF78CFB0321404607F096
:103D700029FB10EE100A1B4988421EDDD8E900120B
:103D8000D8F808000091CDE90120B0EE480A04F10E
:103D9000600605F1100703220121684607F05AFB6F
:103DA0002946684600F01EFC3A462946304600F097
:103DB00051FA97E80F0086E80F0094ED1F0A04F10E
:103DC0003C0214462946F0EE480A404600F00CF842
:103DD00004B02046BDEC028BBDE8F04109F04ABAC0
:103DE000BD37863517B7D1382DE9F04101F16807A5
:103DF0002DED028BB0EE608A0646F0EE408A01F1AE
:103E0000440501F120048AB090460321B0EE480A2F
:103E1000384610F067FA2946B1EE480A30460AF0F3
:103E200029FD0321B0EE680A204610F05BFA032654
:103E3000334601AA41462846009607F08BFA242211
:103E400001A94046FCF704FB032301AA214638469A
:103E5000009607F07FFA4246032301A91046009618
:103E600007F098FA0AB0BDEC028BBDE8F08170B59E
:103E70008CB015461C46DDE910260B4602A900F061
:103E800009F8CDE900262246294602A800F0EEFBFB
:103E90000CB070BDD0EC021AF0EE002AD0ED020A90
:103EA00090ED030A20EEA23A22EE221A60EE223AA8
:103EB00021EE025A21EE204A23EE202A63EE802AC8
:103EC00061EE004A63EEA13A63EE210A21EE211A67
:103ED000F7EE001A23EE000A31EEC23A71EEC51A6F
:103EE00033EE623A71EEE22A81ED003A34EE633A43
:103EF00081ED033A34EEA03A74EEE00A81ED063A21
:103F000034EE233A81ED013AC1ED042A70EE412AE4
:103F100030EE010AC1ED072AC1ED020A81ED050A62
:103F200031EEC20A81ED080A704710B51DC881E85C
:103F30001D0000EE102AB1EE400A81ED010A00EEEC
:103F4000103AB1EE400A81ED020A00EE104AB1EEDD
:103F5000400A81ED030A10BD7FB50D46144669463F
:103F6000FFF7E3FF22466946284600F073F97FBD5C
:103F70002DE9F74F0C4605461222AAB0002353A1A3
:103F8000104603F0A5FEA868FCF78AFC06460F461B
:103F90006868FCF785FC804689462868FCF780FC49
:103FA0000B4602468DE80C0312224BA11046CDE9C8
:103FB000046703F08DFEA068FCF772FC06460F460E
:103FC0006068FCF76DFC804689462068FCF768FC59
:103FD0008DE80303122248A11046CDE9046703F0DF
:103FE00077FE95E807001EAB83E8070094E807001A
:103FF00024AB83E8070003211EA807F071FA032110
:1040000024A807F06DFA1BAA1EA924A807F0CFFA6E
:1040100003211BA807F064FA21AA1BA91EA807F018
:10402000C6FA1B98119012902198139000901E9838
:10403000149001901C981590834622981690824601
:104040001F9F1D9E239C20981797189619941A90CD
:10405000FCF726FC804689462046FCF721FC0446F6
:104060000D463046FCF71CFCCDE90C013846FCF748
:1040700017FCCDE90A015046FCF712FCCDE9080116
:104080005846FCF70DFCCDE906010198FCF708FC49
:1040900006460F460098FCF703FC82468B461198B3
:1040A000FCF7FEFB8DE8030C0EAB122283E8300315
:1040B00019491046CDE9046703F00AFE12A82C99AD
:1040C00000F048FB2DB0BDE8F08F0000522F4125D5
:1040D000643A207165000000522F4125643A203176
:1040E0002F2531302E33652C2531302E33652C258C
:1040F00031302E3365000000522F4125643A2032C2
:104100002F2531302E33652C2531302E33652C256B
:1041100031302E336500000098EA01002DE9F041AE
:1041200088462DED028B92B00746B7EE008A242117
:104130006846FCF7A6F912226E4603AD06AC0023D2
:104140002FA1104603F0C4FD97E8070006AB83E8F3
:1041500007000321204607F0C3F9DDED060AB0EEA3
:10416000480A00EEE00A08F0E3FA8DED000A10EECE
:10417000100AFCF795FB41EC100B07F065FA9FED78
:10418000231B51EC100B53EC112BFCF79DFB0ED2B3
:10419000DDED060AB7EE000A07F03CFB8DED060ADE
:1041A000B1EE400A8DED020A8DED048A18E09DED16
:1041B000060ADDED070A2A46314620EE601ADDEDDB
:1041C000000A2046C1EE201ACDED011A9DED081A15
:1041D00020EE410A80EE201A8DED021A07F0E7F971
:1041E000032209AB1146684607F0C8F9414609A801
:1041F00000F0B0FA12B0BDEC028BBDE8F081000017
:10420000522F4125643A205145000000000000A0D3
:10421000F7C6B03E10B590ED000A0446B5EEC00AF0
:10422000F1EE10FA05D204220121BFEE000A07F0D8
:1042300011F90421204607F0C5F8F0EE400AB7EE68
:10424000001A204681EE200A0422BDE81040012118
:1042500007F000B990ED000AD1ED000A91ED011AC6
:10426000134620EE200AD0ED010A00EEC10AD0ED7F
:10427000020A91ED021A00EEC10AD0ED030A91ED97
:10428000031A00EEC10A82ED000AD0ED000A91ED9A
:10429000011AD1ED001AB5EEC00A60EE810A90ED68
:1042A000011A41EE210A90ED021AD1ED031A41EEF6
:1042B000210A90ED031AD1ED021A41EE610AC3ED15
:1042C000010AD0ED000A91ED021AD1ED031A60EE59
:1042D000810A90ED011A41EE610A90ED021AD1EDCA
:1042E000001A41EE210A90ED031AD1ED011A41EEB8
:1042F000210AC3ED020AD0ED000A91ED031AD1EDB7
:10430000021A60EE810A90ED011A41EE210A90ED49
:10431000021AD1ED011A41EE610A90ED031AD1EDB6
:10432000001A41EE210AF1EE10FAC3ED030A06D29B
:1043300004220121BFEE000A184607F08BB870472F
:1043400010B5012903D01BC882E81B0010BD90EDF9
:10435000010A82ED000A90ED020A82ED010A90ED59
:10436000030A82ED020A90ED000A82ED030A10BDF5
:1043700010B50322002102480DF06CFB10BD0000B7
:1043800000B0004010B5002009490860002109482C
:10439000C0F84411C0F84811C0F84C11002005497C
:1043A000C1F8000102493C39086015F083FD10BDD9
:1043B00040110140001001402DE9F04300262DED91
:1043C000028B9BB08046069607960896DFED308AF2
:1043D00091F8000591460D46B0EE408A01F58064E3
:1043E000E0B90DA94046FFF755FD01270520CDE9AD
:1043F000000706AB022239460DA800F037F90698EF
:10440000FCF74EFA9FED231B53EC112BFCF72AF916
:10441000FCF78AFAC4F8080185F80075B9F1000FB5
:1044200003D185F80065B7EE008AD4ED420A20EE8C
:10443000C80AB6EE008A84ED410A70EE800A20EECA
:10444000080AC4ED420A07F0FDF98DED090ACDED29
:104450000A8ACDED0B8A94ED410A20EE080A07F096
:1044600097FE8DED0C0A16A909A8FFF75EFD02AABA
:10447000414616A8FFF7EEFE02AD95E81E0088E85B
:104480000E00C8F80C401BB0BDEC028BBDE8F083F9
:1044900000000000399D52A246DF913F2DE9F04710
:1044A00004462DED028B914680880F4600283AD0B5
:1044B000002F38D0B84236DB00259FED1D8A01263B
:1044C00018E0E088811BA088014491FBF0F200FB1A
:1044D0001218216801EB880090ED000A0DF038FDFC
:1044E00038B921686D1C01EB880090ED000A30EEB0
:1044F000088A761CBE42E4DD002D14DD00EE105A61
:10450000F8EEC00A88EE200A89ED000AE188A0884A
:104510000144491E91FBF0F200FB1210216801EBEF
:10452000800080ED000ABDEC028BBDE8F087000042
:1045300000000000818800290DD0C288016801EBCD
:10454000820181ED000AC1888288491CB1FBF2F327
:1045500002FB1311C180704770B50D462DED028B23
:104560000646F0EE408A8CB00321B7EE000A2846DA
:104570000FF0B8FEB0EE680A07F00AFEB0EE408A0F
:10458000B0EE680A07F05EF903243146F0EE408A87
:104590000094234602AA0846019406F025FFB7EED0
:1045A000000A032230EE680A114602A806F052FF04
:1045B0002A46032302A91046009406F0EBFE0322CC
:1045C0001146B0EE480A304606F044FF2A4603235F
:1045D00031461046009406F0B9FF0CB0BDEC028BDA
:1045E00070BD000070B50C462DED048B054603210F
:1045F00006F0E8FE10EE100A1B49DFED1A0AB0EED5
:10460000408A88420ADAC4ED030AC4ED020AB7EE12
:10461000000A84EC020ABDEC048B70BDB6EE000A01
:1046200068EE008AB0EE680A07F0B2FD80EE089AE4
:10463000B0EE680A07F006F984ED000A95ED000A6D
:1046400020EE090A84ED010A95ED010A20EE090A1F
:1046500084ED020A95ED020A20EE090A84ED030AB0
:10466000D9E7000000000000BD3786352DE9F04194
:1046700005462DED028B1C46DDE90807164611B1F3
:104680009FED328A01E0B7EE008A042821D0D5EDF3
:10469000000A95ED010A07F0A1F8B1EE400A20EEFC
:1046A000080A84ED000AD5ED080A95ED050A07F021
:1046B00095F8B1EE400A20EE080A84ED010A95ED66
:1046C000020A07F075F860EE080AFFB1BFEE000AB3
:1046D0001EE0D5ED040A95ED030A07F07FF820EE01
:1046E000080A84ED000A95ED050A07F061F8B1EEBD
:1046F000400A20EE080A84ED010AD5ED080A95ED7E
:10470000020A07F06BF820EE480A03E0B7EE000A51
:1047100020EE800A012E84ED020A0BDC94ED000AE3
:10472000B5EEC00AF1EE10FA0CD2DFED090A08EE80
:10473000200A05E0032E05D194ED000AB1EE400AEF
:1047400084ED000ABDEC028BBDE8F081E12E6542EC
:10475000DB0FC94070B50C462DED068BF7EE009AC5
:104760000546D0ED008A90ED048A90ED089A38EE67
:10477000C80A30EE490A30EE290A05F047FEB5EEC8
:1047800000AA20EE0A0A07F0D3FF84ED010A38EEF2
:10479000680A30EE490A30EE290A05F037FE20EEAD
:1047A0000A0A07F0C5FF84ED020AB1EE680A30EE8E
:1047B000480A30EE090A30EE290A05F027FE20EEFD
:1047C0000A0A07F0B5FF84ED030A38EE880A30EED6
:1047D000090A30EE290A05F019FE20EE0A0A07F050
:1047E000A7FF84ED000A95ED050AD5ED070A70EEE6
:1047F000600A94ED010A07F00DF884ED010A95EDC9
:10480000060AD5ED020A70EE600A94ED020A07F07E
:1048100001F884ED020A95ED010AD5ED030A70EE68
:10482000600A94ED030A06F0F5FF84ED030A2046C2
:10483000BDEC068BBDE87040FFF7ECBC70B50C46D4
:104840002DED028B0546032106F0BCFD10EE100A8B
:104850001949B0EE408A88420EDA06F0F3FF84ED83
:10486000000A95ED000A84ED010A95ED010A84ED38
:10487000020A95ED020A19E007F08AFCC0EE088AE8
:10488000B0EE480A06F0DEFF84ED000A95ED000A5E
:1048900020EE280A84ED010A95ED010A20EE280A8F
:1048A00084ED020A95ED020A20EE280A84ED030A3F
:1048B000BDEC028B70BD0000BD37863570B5154666
:1048C0002DED088B0E46044690ED020AB8EEC00AA4
:1048D0000DF03EFB38B194ED010AB8EEC00A0DF0C0
:1048E00037FB00287DD194ED020AB8EEC00A10EE25
:1048F000100AFBF7D5FF9FED528B53EC182BFBF7FB
:10490000B1FEFCF711F894ED010A0AEE900AB8EE38
:10491000C00A10EE100AFBF7C3FF53EC182BFBF78D
:10492000A1FEFCF701F808EE100A2078022801D059
:10493000B1EE488A96ED00AAD6ED029AD5ED008A2E
:1049400095ED029AB0EE480A06F07CFF20EE0ABA16
:10495000B0EE480A07F01CFC09EEC0BAB0EE480AF7
:1049600086ED00BA07F014FC20EE0AAAB0EE480A61
:1049700006F068FF09EE80AAB0EE480A86ED02AAAA
:1049800006F060FF60EE289AB0EE480A07F000FCDF
:1049900049EE409AB0EE480AC5ED009A07F0F8FBE0
:1049A00060EE288AB0EE480A06F04CFF49EE008A15
:1049B000B0EE6A0AC5ED028AD6ED019AD6ED028AFA
:1049C00095ED018A95ED029A06F03CFF20EE29AAAA
:1049D000B0EE6A0A07F0DCFB08EEC0AA86ED01AA79
:1049E00000E029E0B0EE6A0A07F0D2FB60EE299AF7
:1049F000B0EE6A0A06F026FF48EE809AB0EE6A0A28
:104A0000C6ED029A06F01EFF60EE088AB0EE6A0A52
:104A100007F0BEFB49EE408AB0EE6A0AC5ED018A96
:104A200007F0B6FB20EE088AB0EE6A0A06F00AFF2D
:104A300009EE008A85ED028ABDEC088B70BD00008E
:104A4000399D52A246DF913F2DE9F047D1F820A0D1
:104A50008AB04FF000080F46054600F59C74914659
:104A6000CDF80880CDF80C80464605A95046CDF813
:104A7000108008F05CFC01210520CDE900010A4608
:104A8000002302A905A8FFF7F2F994F8300008B155
:104A9000002011E097ED070ADFED240A20EE200A3E
:104AA000BCEEC00A10EE100A9DED020A81B220464B
:104AB00016F046F8002802DCB9F1000F17D094ED8B
:104AC0000A0A012610EE100AB0F17E5F01DA012019
:104AD0000AE0687B00EE900AF8EE600A20EE200AF9
:104AE000BDEEC00A10EE100A84F8300006E000287F
:104AF00001DA84F8308094F8300090B1C0B2401EE2
:104B000004F8300F05A9504608F011FC227814ED86
:104B1000010A294605A8FFF74FFC05A9504607F0F2
:104B200031FB0AB03046BDE8F08700006F12833ACF
:104B30002DE9F74F00F110042DED088BA0B00E46C3
:104B4000086A91ED070ADFEDB80A4FF00009CDF8C9
:104B5000209020EE208ACDF8249015A9CDF8289039
:104B600008F0E5FBB4F8DC00B4F8DE10401E81422A
:104B700002D1012084F8EC00B4F8DC0089B20144D1
:104B8000491E91FBF0F200FB1210D4F8D81001EB93
:104B9000800090ED000A04F1D80030EE080AFFF71B
:104BA000C9FC00250DF1200806EB850090ED040AF4
:104BB00004EBC500C0300746FFF7BCFC08EB8502DC
:104BC00038460521FFF76AFC6D1C032DECDBCDF8A0
:104BD0003C90CDF84490CDF84C90CDF84090CDF875
:104BE0001490CDF84890CDF83890CDF81890CDF8C5
:104BF0001C90CDF8509094F8EC00DFED8C8A0028E2
:104C00007ED0B4F8DE00B4F8DC100DF1500B08448F
:104C1000421E92FBF1F301FB1326801E90FBF1F282
:104C200001FB1209D4F8D800002500EB860100EB47
:104C3000890091ED000AD0ED000A30EE608A00BFD5
:104C400004EB850707F1FC0107F1F000CDE9000155
:104C500004EBC50A0023DAF8C0100C22D4F8D800FF
:104C600007F07CFDDAF8C00000EB860100EB89005C
:104C700091ED000AD0ED000A05A800EB850070EE6A
:104C8000600A80EE880A80ED000AD7ED3C0A20EE2B
:104C9000200AB5EEC00AF1EE10FA01D2012100E0BF
:104CA00000210BF805106D1C032DC9DBD4F8D810BA
:104CB00001EB860191ED008AB4F8141100EE101A90
:104CC000B8EE400A20EE280ADFED590A0026B7EEBA
:104CD00000AA60EE208ADFED579ADA460DF1440B08
:104CE00000EE106AB0EE4A9A38EE288AB8EEC00A92
:104CF0005FF0000500EE699A04EB8500814600E054
:104D000069E0D0ED3C0A90ED3F0A0BEB850700EE21
:104D1000880A87ED000A1AF8050080B910EE100A1B
:104D2000FBF7BEFD41EC100B06F08EFC9FED421B25
:104D300051EC100B53EC112BFBF7DEFD04D208EB0A
:104D4000850090ED000A30E005A800EB85001D907D
:104D50000068FBF7A5FD41EC100B06F075FCB0EE0A
:104D600040BAF0EE60BAD9F8F000FBF799FD41ECDB
:104D7000100B06F069FC53EC1B2B51EC100BFBF7EE
:104D8000BBFD02D397ED000A11E008EB850090ED22
:104D9000000A1D98D0ED000A701C20EEA81A00EE43
:104DA000900AF8EEE00A01EE200A87ED000A20EEF4
:104DB000280A0EA800EB85006D1C20EE090AD0ED34
:104DC000000A032D30EE800A80ED000A94DB761C89
:104DD0000A2E85DB12E010360EAB96E8070083E85A
:104DE0000700B4F81401032200EE100A01210EA8F6
:104DF000B8EE400A20EE280A06F02CFB19A90EA8EE
:104E0000FFF7F0FB04F58C72144619A915A8FFF7FB
:104E100021FA012120462A9AFFF792FA20B0BDEC30
:104E2000088BBDE8FE8F0000BD3786356F12833AD0
:104E3000CDCCCC3D0AD7A33C0000000000002040B0
:104E400010B500F04FFD10BD2DE9F047074688462C
:104E50001646C24607EB47011B4800EBC109D9F8CB
:104E6000140020B1012811D0022826D11EE04846A6
:104E700000F070FD0546B54201D2002405E034463D
:104E800032465146484600F0BEFD18E0484600F064
:104E900061FD0546B54201D2284600E03046044691
:104EA00022465146484600F0AEFD08E032465146E3
:104EB000484600F06FFD044601E0002400BF00BF3B
:104EC0002046BDE8F0870000301F002010B50249E1
:104ED00002480CF0ACFD10BD64170020003000400B
:104EE00010B503494FF0402015F0C6F810BD000082
:104EF0000018002010B514F00BFF10BD01680B293D
:104F000044D190ED030A2249BDEEC00A0A6B10EEAF
:104F1000103A7BB1012B1CD0022B2AD0092B35D1A2
:104F200090ED040ABDEEC00A10EE100AF0B142F096
:104F3000080008E090ED040ABDEEC00A10EE100A69
:104F400020B142F0010008630AF030BB22F00100FA
:104F5000F9E790ED040ABDEEC00A10EE100A10B198
:104F600042F00200EFE722F00200ECE722F0080036
:104F7000E9E790ED040ABDEEC00A10EE100A10B188
:104F800042F00400DFE722F00400DCE77047000095
:104F90004002002010B50A4C206000F5BC70606033
:104FA000E06007F04DF8E16808442061A0606061AE
:104FB0000FF089FB61690844A061E06110BD000049
:104FC000E8390020344800B502688FB0012313731C
:104FD00091ED020A0B4601AAF8EEC00A9FED2F0AD6
:104FE00060EE800ACDED0B0AD1ED030AF8EEE00A7F
:104FF00060EE800ACDED0C0AD1ED040AF8EEE00A6D
:1050000060EE800ACDED0D0AD1ED050A191DF8EE0E
:10501000E00A20EE800A8DED0A0A93ED060AF8EE0A
:10502000C00A9FED1F0A60EE800ACDED010AD3EDA4
:10503000090AF8EEE00A60EE800ACDED050AD3ED2C
:105040000B0AF8EEE00A60EE800ACDED090AD3ED16
:10505000070AF8EEE00A60EE800ACDED040ACDED15
:10506000020AD3ED080AF8EEE00A60EE800ACDED00
:10507000070ACDED030AD3ED0A0AF8EEE00A20EEA6
:10508000800A8DED080A8DED060A0091C0680AA914
:1050900008F0CAF90FB000BDE839002077CC2B32F8
:1050A0009595E6242DE9F0411C462DED028B9AB032
:1050B000174680460D4691ED5B0A0CF049FF48B15A
:1050C000381D02AB07C883E8070097ED048AD7E9CB
:1050D000056715E095F8720102AB00EBC00005EB27
:1050E000C00202F5D27207CA83E8070095F8720180
:1050F00000EBC00005EBC00090ED6C8AD0E96D6755
:1051000098E80E00D8F80C00CDE90730CDE905127B
:1051100095F8F80478B39FED4D0ADFED4D0ACDED1B
:10512000170ACDED160A07F033F88DED190A8DED4B
:10513000180A05AA414616A8FEF70EFF9DED020AC1
:10514000DDE90301B1EE400A8DED020A00EE101A0E
:105150008DED030A00EE100A8DED040AB1EE480A47
:1051600084ED1D0A00EE107A84ED1E0A00EE106A2E
:1051700084ED1F0A04E0FFE784ED1D8AC4E91E6781
:1051800028782060221D012105A8FFF7D9F8012603
:105190000520CDE90006324604F1240105A8D5F822
:1051A000FC34FEF764FE94ED0A0A04F130010D466A
:1051B000B1EE400A84ED0A0A05A8FEF76BFE032251
:1051C0000DAB1146284606F0D9F924220DA9284630
:1051D000FBF73EF91F4A0AAF0DAB07CA87E8070085
:1051E00003221146284606F0C9F90320CDE900063E
:1051F000034604F15C0215460AA90DA806F0F4F86E
:10520000012203219FED140A284606F023F904F138
:10521000680203231446294602A8009606F096F970
:105220009FED0E8A01220321B0EE480A284606F0BF
:1052300011F901220321B0EE480A204606F00AF9CE
:105240001AB0BDEC028BBDE8F0810000DB0F493FD6
:105250000000000044E801000AE81C417FD6D03D70
:105260002DE9F04F002601277F4DA0F5C8708DB0C5
:105270000C46B046072826D2DFE800F02648325216
:10528000A91E0400206801281DD178A0FDF7BAFBF3
:1052900079A0FDF7B7FB7AA0FDF7B4FB6760C4E91E
:1052A00002784FF4FA70C4E9048079A0FDF7AAFBF4
:1052B0004FF49670A061D2E020680128E4D16068C4
:1052C000A863A068E863CBE020680128FBD1606890
:1052D000686000B96F60A06868630AF067F9BFE0B2
:1052E00020680128EFD128216B48FBF7CAF8C5F8E0
:1052F0002480A068A86260680228E4D1282204F112
:10530000180165486F62FBF7A3F8A9E0206801283F
:10531000D9D1606828640AF001FD2868A0609EE089
:1053200020680128CFD128216846FBF7AAF86168D8
:105330000120022900D1002000210A91A168022940
:1053400001D101210A91E16800912169019161690E
:105350000291A1690391E1690491216A0591616A51
:105360000691A16A0791E16A0891216B099118B130
:1053700068460A9909F076FC0020834682468146F9
:105380008046074606460B900A9809F089F9050001
:1053900015D000200A9909F065FC55F8406FE86ABD
:1053A00001684FF47A7091FBF0F00B90286BD5E90F
:1053B0001898D0F800B0686B6F68D0F800A0A761AB
:1053C000E6600B98C4F828A0C4E9080B45E0206803
:1053D000012845D120216846FBF753F86168012078
:1053E000022900D10020A1684FF0000B022901D151
:1053F0004FF0010BE168009121690191616902910F
:10540000A1690391E1690491216A0591E16A06911C
:10541000216B079118B15946684609F07DFC4FF0A1
:10542000000AD146D04657465646584609F038F944
:1054300005000ED05946002009F014FC55F8406FC5
:10544000E86AD5E9189801684FF47A7091FBF0FA90
:105450006F68C4F820A0A761E660C4E90B98012634
:105460000DB03046BDE8F08F40020020405F40762E
:10547000312E312E302E3000405F407035303000FC
:10548000405F4054323032322F342F31340000002C
:10549000405F406D333030004834002000214163CC
:1054A0009FED070A816380ED020A80ED010A80ED1D
:1054B000000A80ED050A80ED040A80ED030A7047BA
:1054C00000000000002181619FED070AC16180EDAD
:1054D000020A80ED010A80ED000A80ED050A80EDE8
:1054E000040A80ED030A70470000000010B504466E
:1054F0005C21FAF7C6FF9FED060A40F6B83084ED4E
:10550000130A20644FF47A70E0630520A06410BD94
:105510008FC2753C90ED002A32EE002A80ED002A01
:1055200090ED032A00EE002A80ED032A90ED010A97
:1055300030EE200A80ED010A90ED040A00EEA00A88
:1055400080ED040A90ED020A30EE010A80ED020AB5
:1055500090ED050A01EE010A80ED050A9FED070AAC
:10556000416BC1EE800A491C4163826BBCEEE00ACC
:1055700010EE101A114481637047000000007A4455
:1055800001480249086070470090D00300010020E4
:1055900010B50FF0B7F940B10020794908604FF01D
:1055A0008041C1F81001774908600FF0C9F900285F
:1055B00055D075480068754908607348001D00683B
:1055C000091D0860704808300068091D08606E48B1
:1055D0000C300068091D08606B4810300068091D18
:1055E0000860694814300068091D08606648183072
:1055F000006866492031086063481C300068091D56
:105600000860614820300068091D08605E48243049
:105610000068091D08605C4828300068091D0860A2
:1056200059482C300068091D086057483030006820
:10563000564940310860544834300068091D0860FC
:10564000514838300068091D08604F483C300068F8
:10565000091D08604C4840300068091D08600FF0C3
:105660008DF910B14A484B4908600FF0D3F810B1DA
:10567000FB20494908600FF0EBF838B14748017842
:105680004748006861F30300454908600FF0FEF8E1
:1056900018B14FF40070434908600FF015F940B19C
:1056A0004148006800F0010018B16FF001003E4968
:1056B00008603E48006840F470003C49086000BF44
:1056C00000BF00BFBFF34F8F00BF00BF00BF00BFD0
:1056D00000BF00BFBFF36F8F00BF00BF00BF3448E3
:1056E000006800F0004030B93148001D006800F04B
:1056F0000040002840D001202E49086000BF2E48FD
:1057000000680028FBD012202949086000BF2A4801
:1057100000680028FBD012212548001D016000BF51
:10572000254800680028FBD000202249086000BFFF
:10573000214800680028FBD000BF00BF00BF00BFA9
:1057400000BFBFF34F8F00BF00BF00BF17487C38BA
:10575000006800F4E06019490843001D13497C39D2
:10576000086000BF00BF00BFBFF34F8F00BF00BF86
:1057700000BF00BF00BFFDE7FFF702FF10BD000044
:105780000C010040380500400404001020C5004012
:10579000488103008C56004018F500405802001064
:1057A000E40E0040409602400004004088ED00E016
:1057B0000012001004E5014000E401400000FA0579
:1057C00010B50422024903480CF0A0F910BD0000F6
:1057D000F41700200080004070B5044600EB011073
:1057E00010F8041F491C00F8041B0ECA80E80E00C4
:1057F000D4F8B420012504F1600104F1080012B1CD
:10580000226F012A0CD02279002A08D0227D002A9A
:1058100005D00A4604F11801FEF7AAFBA57070BD79
:105820002279002AFBD0FEF779FCF7E710B5024990
:105830000868804710BD00004C000020F0B51746F6
:1058400087B01E460C4605460246254B394668463B
:1058500015F033FD6946084615F023FD29466A46D2
:10586000084615F012FD39466A46084615F00DFD4A
:1058700031461B4B2246084615F01FFD314668464F
:1058800015F00FFD6946164B2A46084615F015FD22
:105890006946134B3A46084615F00FFD3946104B42
:1058A0002A46084615F009FD21463A46084615F0F5
:1058B000ECFC0B4B6A462946384615F0FEFC314697
:1058C0003A46084615F0E1FC3146054B22460846AB
:1058D00015F0F3FC6946384615F098FD07B0F0BDA9
:1058E000C003002010B5124C02202061606111A09D
:1058F000A0611349E1614FF4007121620021A162AE
:105900006162E1620BA0A0640E49E164102121658F
:105910000021A1656165E1650BA1E01DFAF7F2FDCB
:105920000AA12046FAF7EEFD2020A07110BD00006C
:10593000181F00205465726D696E616C00000000D4
:10594000901F002090210020525454005345474797
:105950004552000010B501460A69CB689A4204D846
:105960008C68641EE41AA01801E0D41A601E10BDF1
:1059700010B501460846002807DB00F01F0301228E
:105980009A40034B440943F8242000BF10BD000097
:1059900080E200E02DE9F0470446894617464FF0C3
:1059A000000AE56800BFD4F81080A84503D9A8EB29
:1059B0000500461E04E0A5EB0800401CA1680E1A75
:1059C000A068401BB04201D9304601E0A068401BEE
:1059D0000646BE4201D2304600E0384606466168BF
:1059E000481932464946FAF733FDB244B144BF1B69
:1059F0003544A068A84200D10025E560002FD2D12F
:105A00005046BDE8F0872DE9F04704468946154623
:105A1000E668A068871BAF4208D9616888192A46E2
:105A20004946FAF715FD7019E06010E0B846616864
:105A3000881942464946FAF70BFDA5EB070809EB22
:105A4000070142466068FAF703FDC4F80C80BDE820
:105A5000F08700000FB4054B10B503A9044A029863
:105A600000F0C4FE10BC5DF814FB000063D200001F
:105A7000840000200FB47CB50C0009AD01D0611E7C
:105A800000E00021CDE90001064B6A46294608984E
:105A900000F0ACFE002C02D0009A002111707CBCFA
:105AA0005DF814FBF36E00000FB4084B10B504A9A9
:105AB00002AA039800F09AFE044602A9002001F011
:105AC00023FA204610BC5DF814FB0000096F0000AB
:105AD0007CB50C001D461646014601D0601E00E054
